{
  "contractName": "ProxyRegistry",
  "abi": [
    {
      "inputs": [
        {
          "internalType": "address",
          "name": "",
          "type": "address"
        }
      ],
      "name": "proxies",
      "outputs": [
        {
          "internalType": "contract OwnableDelegateProxy",
          "name": "",
          "type": "address"
        }
      ],
      "stateMutability": "view",
      "type": "function"
    }
  ],
  "bytecode": "0x608060405234801561001057600080fd5b5061019e806100206000396000f3fe608060405234801561001057600080fd5b506004361061002b5760003560e01c8063c455279114610030575b600080fd5b61004a600480360381019061004591906100a8565b610060565b60405161005791906100e0565b60405180910390f35b60006020528060005260406000206000915054906101000a900473ffffffffffffffffffffffffffffffffffffffff1681565b6000813590506100a281610151565b92915050565b6000602082840312156100ba57600080fd5b60006100c884828501610093565b91505092915050565b6100da8161012d565b82525050565b60006020820190506100f560008301846100d1565b92915050565b60006101068261010d565b9050919050565b600073ffffffffffffffffffffffffffffffffffffffff82169050919050565b60006101388261013f565b9050919050565b600061014a8261010d565b9050919050565b61015a816100fb565b811461016557600080fd5b5056fea2646970667358221220da2fdbf904b1d0825abf8a9cfdbf503ff8e08463a8a23f8c5a1c28de323c995564736f6c63430008000033",
  "immutableReferences": {},
  "source": "// SPDX-License-Identifier: MIT\r\n\r\npragma solidity ^0.8.0;\r\n\r\nimport \"../node_modules/@openzeppelin/contracts/access/Ownable.sol\";\r\nimport \"../node_modules/@openzeppelin/contracts/utils/math/SafeMath.sol\";\r\nimport \"../node_modules/@openzeppelin/contracts/utils/Strings.sol\";\r\nimport \"../node_modules/@openzeppelin/contracts/token/ERC721/presets/ERC721PresetMinterPauserAutoId.sol\";\r\nimport \"./ContentMixin.sol\";\r\nimport \"../node_modules/@openzeppelin/contracts/utils/Counters.sol\";\r\ncontract OwnableDelegateProxy {}\r\n\r\ncontract ProxyRegistry {\r\n    mapping(address => OwnableDelegateProxy) public proxies;\r\n}\r\n\r\n/**\r\n * @title ERC721Tradable\r\n * ERC721Tradable - ERC721 contract that whitelists a trading address, and has minting functionality.\r\n */\r\ncontract ERC721Tradable is ContextMixin, ERC721PresetMinterPauserAutoId, Ownable {\r\n    using SafeMath for uint256;\r\n    using Counters for Counters.Counter;\r\n\r\n     Counters.Counter private _tokenIdTracker;\r\n     uint256 private _price=100000000000000000;\r\n     uint256 private _presalePrice=10000000000000000;\r\n     uint256 private _maxSupply=100;\r\n     uint256 private _maxPresaleSupply=25;\r\n     address public proxyRegistryAddress;\r\n\r\n    constructor(\r\n        string memory _name,\r\n        string memory _symbol,\r\n        address _proxyRegistryAddress,\r\n        string memory _baseURI\r\n    ) ERC721PresetMinterPauserAutoId(_name, _symbol,_baseURI) {\r\n        proxyRegistryAddress = _proxyRegistryAddress;\r\n    }\r\n\r\n    // /**\r\n    //  * @dev Mints a token to an address with a tokenURI.\r\n    //  * @param _to address of the future owner of the token\r\n    //  * @param _tokenId address of the future owner of the token\r\n    //  */\r\n\r\n    function PresalePrice(uint256  Presale_Price ) public  onlyOwner {\r\n         _presalePrice = Presale_Price; \r\n    }\r\n    function MainsalePrice(uint256  Mainsale_Price ) public  onlyOwner {\r\n         _price = Mainsale_Price; \r\n    }\r\n  function MainsaleSupply(uint256  Mainsale_Supply ) public  onlyOwner {\r\n         _maxSupply = Mainsale_Supply; \r\n    }\r\n     function PresaleSupply(uint256  Presale_Supply ) public  onlyOwner {\r\n         _presalePrice = Presale_Supply; \r\n    }\r\n\r\n    function mintTo(address _to ) payable public virtual {\r\n        require(balanceOf(msg.sender) <=9,\"Only eight NFT Mint Per Address\");\r\n          require(totalSupply() <= _maxSupply,\"All Tokens Mint\");\r\n          require(msg.value >= _price,\"Not Enough Ether\");\r\n          payable(0x84dDA0d57Bf4144f669542e0DD0F6B21389300Af).transfer(msg.value);\r\n         _tokenIdTracker.increment();\r\n           _mint(_to, _tokenIdTracker.current());\r\n    }\r\n    \r\n    function Presale(address _to) payable public virtual{\r\n         require(balanceOf(msg.sender) <=1,\"Only Two NFT Mint Per Address\");\r\n         require(totalSupply() <= _maxPresaleSupply);\r\n         require(msg.value >= _presalePrice,\"Not Enough Price to mint\");\r\n         payable(0x84dDA0d57Bf4144f669542e0DD0F6B21389300Af).transfer(msg.value);\r\n        _tokenIdTracker.increment();\r\n        _mint(_to, _tokenIdTracker.current());\r\n    }\r\n\r\n    function OwnerPresale(address _to) public onlyOwner{\r\n         require(totalSupply() <= _maxPresaleSupply);\r\n        _tokenIdTracker.increment();\r\n        _mint(_to, _tokenIdTracker.current());\r\n    }\r\n\r\n     function OwnerMainsale(address _to) public onlyOwner{\r\n         require(totalSupply() <= _maxSupply);\r\n        _tokenIdTracker.increment();\r\n        _mint(_to, _tokenIdTracker.current());\r\n    }\r\n\r\n    function baseTokenURI() virtual public view returns (string memory){\r\n        return _baseURI();\r\n    }\r\n\r\n    function tokenURI(uint256 _tokenId) override public view returns (string memory) {\r\n        return string(abi.encodePacked(baseTokenURI(), Strings.toString(_tokenId),\".json\"));\r\n    }\r\n\r\n    /**\r\n     * Override isApprovedForAll to whitelist user's OpenSea proxy accounts to enable gas-less listings.\r\n     */\r\n    function isApprovedForAll(address owner, address operator)\r\n        override\r\n        public\r\n        view\r\n        returns (bool)\r\n    {\r\n        // Whitelist OpenSea proxy contract for easy trading.\r\n        ProxyRegistry proxyRegistry = ProxyRegistry(proxyRegistryAddress);\r\n        if (address(proxyRegistry.proxies(owner)) == operator) {\r\n            return true;\r\n        }\r\n\r\n        return super.isApprovedForAll(owner, operator);\r\n    }\r\n\r\n    /**\r\n     * This is used instead of msg.sender as transactions won't be sent by the original token owner, but by OpenSea.\r\n     */\r\n    function _msgSender()\r\n        internal\r\n        override\r\n        view\r\n        returns (address sender)\r\n    {\r\n        return ContextMixin.msgSender();\r\n    }\r\n}",
  "sourcePath": "D:\\Blockchain\\Mint-NFT-Wrapper-ERC721\\contracts\\ERC721Tradable.sol",
  "compiler": {
    "name": "solc",
    "version": "0.8.0+commit.c7dfd78e.Emscripten.clang"
  },
  "schemaVersion": "3.4.4",
  "updatedAt": "2022-01-31T13:25:23.503Z",
  "devdoc": {
    "kind": "dev",
    "methods": {},
    "version": 1
  },
  "userdoc": {
    "kind": "user",
    "methods": {},
    "version": 1
  }
}