{
  "contractName": "TestNFT",
  "abi": [
    {
      "inputs": [],
      "stateMutability": "nonpayable",
      "type": "constructor"
    },
    {
      "anonymous": false,
      "inputs": [
        {
          "indexed": true,
          "internalType": "address",
          "name": "owner",
          "type": "address"
        },
        {
          "indexed": true,
          "internalType": "address",
          "name": "approved",
          "type": "address"
        },
        {
          "indexed": true,
          "internalType": "uint256",
          "name": "tokenId",
          "type": "uint256"
        }
      ],
      "name": "Approval",
      "type": "event"
    },
    {
      "anonymous": false,
      "inputs": [
        {
          "indexed": true,
          "internalType": "address",
          "name": "owner",
          "type": "address"
        },
        {
          "indexed": true,
          "internalType": "address",
          "name": "operator",
          "type": "address"
        },
        {
          "indexed": false,
          "internalType": "bool",
          "name": "approved",
          "type": "bool"
        }
      ],
      "name": "ApprovalForAll",
      "type": "event"
    },
    {
      "anonymous": false,
      "inputs": [
        {
          "indexed": true,
          "internalType": "address",
          "name": "previousOwner",
          "type": "address"
        },
        {
          "indexed": true,
          "internalType": "address",
          "name": "newOwner",
          "type": "address"
        }
      ],
      "name": "OwnershipTransferred",
      "type": "event"
    },
    {
      "anonymous": false,
      "inputs": [
        {
          "indexed": false,
          "internalType": "address",
          "name": "account",
          "type": "address"
        }
      ],
      "name": "Paused",
      "type": "event"
    },
    {
      "anonymous": false,
      "inputs": [
        {
          "indexed": true,
          "internalType": "bytes32",
          "name": "role",
          "type": "bytes32"
        },
        {
          "indexed": true,
          "internalType": "bytes32",
          "name": "previousAdminRole",
          "type": "bytes32"
        },
        {
          "indexed": true,
          "internalType": "bytes32",
          "name": "newAdminRole",
          "type": "bytes32"
        }
      ],
      "name": "RoleAdminChanged",
      "type": "event"
    },
    {
      "anonymous": false,
      "inputs": [
        {
          "indexed": true,
          "internalType": "bytes32",
          "name": "role",
          "type": "bytes32"
        },
        {
          "indexed": true,
          "internalType": "address",
          "name": "account",
          "type": "address"
        },
        {
          "indexed": true,
          "internalType": "address",
          "name": "sender",
          "type": "address"
        }
      ],
      "name": "RoleGranted",
      "type": "event"
    },
    {
      "anonymous": false,
      "inputs": [
        {
          "indexed": true,
          "internalType": "bytes32",
          "name": "role",
          "type": "bytes32"
        },
        {
          "indexed": true,
          "internalType": "address",
          "name": "account",
          "type": "address"
        },
        {
          "indexed": true,
          "internalType": "address",
          "name": "sender",
          "type": "address"
        }
      ],
      "name": "RoleRevoked",
      "type": "event"
    },
    {
      "anonymous": false,
      "inputs": [
        {
          "indexed": true,
          "internalType": "address",
          "name": "from",
          "type": "address"
        },
        {
          "indexed": true,
          "internalType": "address",
          "name": "to",
          "type": "address"
        },
        {
          "indexed": true,
          "internalType": "uint256",
          "name": "tokenId",
          "type": "uint256"
        }
      ],
      "name": "Transfer",
      "type": "event"
    },
    {
      "anonymous": false,
      "inputs": [
        {
          "indexed": false,
          "internalType": "address",
          "name": "account",
          "type": "address"
        }
      ],
      "name": "Unpaused",
      "type": "event"
    },
    {
      "inputs": [],
      "name": "DEFAULT_ADMIN_ROLE",
      "outputs": [
        {
          "internalType": "bytes32",
          "name": "",
          "type": "bytes32"
        }
      ],
      "stateMutability": "view",
      "type": "function",
      "constant": true
    },
    {
      "inputs": [],
      "name": "MINTER_ROLE",
      "outputs": [
        {
          "internalType": "bytes32",
          "name": "",
          "type": "bytes32"
        }
      ],
      "stateMutability": "view",
      "type": "function",
      "constant": true
    },
    {
      "inputs": [
        {
          "internalType": "address",
          "name": "_to",
          "type": "address"
        },
        {
          "internalType": "uint256",
          "name": "tokens",
          "type": "uint256"
        }
      ],
      "name": "OwnerPresale",
      "outputs": [],
      "stateMutability": "nonpayable",
      "type": "function"
    },
    {
      "inputs": [],
      "name": "PAUSER_ROLE",
      "outputs": [
        {
          "internalType": "bytes32",
          "name": "",
          "type": "bytes32"
        }
      ],
      "stateMutability": "view",
      "type": "function",
      "constant": true
    },
    {
      "inputs": [
        {
          "internalType": "address",
          "name": "_to",
          "type": "address"
        }
      ],
      "name": "Presale",
      "outputs": [],
      "stateMutability": "payable",
      "type": "function",
      "payable": true
    },
    {
      "inputs": [
        {
          "internalType": "uint256",
          "name": "Presale_Price",
          "type": "uint256"
        }
      ],
      "name": "PresalePrice",
      "outputs": [],
      "stateMutability": "nonpayable",
      "type": "function"
    },
    {
      "inputs": [
        {
          "internalType": "uint256",
          "name": "Presale_Supply",
          "type": "uint256"
        }
      ],
      "name": "PresaleSupply",
      "outputs": [],
      "stateMutability": "nonpayable",
      "type": "function"
    },
    {
      "inputs": [
        {
          "internalType": "address",
          "name": "to",
          "type": "address"
        },
        {
          "internalType": "uint256",
          "name": "tokenId",
          "type": "uint256"
        }
      ],
      "name": "approve",
      "outputs": [],
      "stateMutability": "nonpayable",
      "type": "function"
    },
    {
      "inputs": [
        {
          "internalType": "address",
          "name": "owner",
          "type": "address"
        }
      ],
      "name": "balanceOf",
      "outputs": [
        {
          "internalType": "uint256",
          "name": "",
          "type": "uint256"
        }
      ],
      "stateMutability": "view",
      "type": "function",
      "constant": true
    },
    {
      "inputs": [],
      "name": "baseTokenURI",
      "outputs": [
        {
          "internalType": "string",
          "name": "",
          "type": "string"
        }
      ],
      "stateMutability": "view",
      "type": "function",
      "constant": true
    },
    {
      "inputs": [
        {
          "internalType": "uint256",
          "name": "tokenId",
          "type": "uint256"
        }
      ],
      "name": "burn",
      "outputs": [],
      "stateMutability": "nonpayable",
      "type": "function"
    },
    {
      "inputs": [
        {
          "internalType": "uint256",
          "name": "tokenId",
          "type": "uint256"
        }
      ],
      "name": "getApproved",
      "outputs": [
        {
          "internalType": "address",
          "name": "",
          "type": "address"
        }
      ],
      "stateMutability": "view",
      "type": "function",
      "constant": true
    },
    {
      "inputs": [
        {
          "internalType": "bytes32",
          "name": "role",
          "type": "bytes32"
        }
      ],
      "name": "getRoleAdmin",
      "outputs": [
        {
          "internalType": "bytes32",
          "name": "",
          "type": "bytes32"
        }
      ],
      "stateMutability": "view",
      "type": "function",
      "constant": true
    },
    {
      "inputs": [
        {
          "internalType": "bytes32",
          "name": "role",
          "type": "bytes32"
        },
        {
          "internalType": "uint256",
          "name": "index",
          "type": "uint256"
        }
      ],
      "name": "getRoleMember",
      "outputs": [
        {
          "internalType": "address",
          "name": "",
          "type": "address"
        }
      ],
      "stateMutability": "view",
      "type": "function",
      "constant": true
    },
    {
      "inputs": [
        {
          "internalType": "bytes32",
          "name": "role",
          "type": "bytes32"
        }
      ],
      "name": "getRoleMemberCount",
      "outputs": [
        {
          "internalType": "uint256",
          "name": "",
          "type": "uint256"
        }
      ],
      "stateMutability": "view",
      "type": "function",
      "constant": true
    },
    {
      "inputs": [
        {
          "internalType": "bytes32",
          "name": "role",
          "type": "bytes32"
        },
        {
          "internalType": "address",
          "name": "account",
          "type": "address"
        }
      ],
      "name": "grantRole",
      "outputs": [],
      "stateMutability": "nonpayable",
      "type": "function"
    },
    {
      "inputs": [
        {
          "internalType": "bytes32",
          "name": "role",
          "type": "bytes32"
        },
        {
          "internalType": "address",
          "name": "account",
          "type": "address"
        }
      ],
      "name": "hasRole",
      "outputs": [
        {
          "internalType": "bool",
          "name": "",
          "type": "bool"
        }
      ],
      "stateMutability": "view",
      "type": "function",
      "constant": true
    },
    {
      "inputs": [
        {
          "internalType": "address",
          "name": "owner",
          "type": "address"
        },
        {
          "internalType": "address",
          "name": "operator",
          "type": "address"
        }
      ],
      "name": "isApprovedForAll",
      "outputs": [
        {
          "internalType": "bool",
          "name": "",
          "type": "bool"
        }
      ],
      "stateMutability": "view",
      "type": "function",
      "constant": true
    },
    {
      "inputs": [
        {
          "internalType": "address",
          "name": "to",
          "type": "address"
        }
      ],
      "name": "mint",
      "outputs": [],
      "stateMutability": "nonpayable",
      "type": "function"
    },
    {
      "inputs": [
        {
          "internalType": "address",
          "name": "_to",
          "type": "address"
        }
      ],
      "name": "mintTo",
      "outputs": [],
      "stateMutability": "payable",
      "type": "function",
      "payable": true
    },
    {
      "inputs": [],
      "name": "name",
      "outputs": [
        {
          "internalType": "string",
          "name": "",
          "type": "string"
        }
      ],
      "stateMutability": "view",
      "type": "function",
      "constant": true
    },
    {
      "inputs": [],
      "name": "owner",
      "outputs": [
        {
          "internalType": "address",
          "name": "",
          "type": "address"
        }
      ],
      "stateMutability": "view",
      "type": "function",
      "constant": true
    },
    {
      "inputs": [
        {
          "internalType": "uint256",
          "name": "tokenId",
          "type": "uint256"
        }
      ],
      "name": "ownerOf",
      "outputs": [
        {
          "internalType": "address",
          "name": "",
          "type": "address"
        }
      ],
      "stateMutability": "view",
      "type": "function",
      "constant": true
    },
    {
      "inputs": [],
      "name": "pause",
      "outputs": [],
      "stateMutability": "nonpayable",
      "type": "function"
    },
    {
      "inputs": [],
      "name": "paused",
      "outputs": [
        {
          "internalType": "bool",
          "name": "",
          "type": "bool"
        }
      ],
      "stateMutability": "view",
      "type": "function",
      "constant": true
    },
    {
      "inputs": [],
      "name": "presaleMaxSupply",
      "outputs": [
        {
          "internalType": "uint256",
          "name": "",
          "type": "uint256"
        }
      ],
      "stateMutability": "view",
      "type": "function",
      "constant": true
    },
    {
      "inputs": [],
      "name": "presalePrice",
      "outputs": [
        {
          "internalType": "uint256",
          "name": "",
          "type": "uint256"
        }
      ],
      "stateMutability": "view",
      "type": "function",
      "constant": true
    },
    {
      "inputs": [],
      "name": "proxyRegistryAddress",
      "outputs": [
        {
          "internalType": "address",
          "name": "",
          "type": "address"
        }
      ],
      "stateMutability": "view",
      "type": "function",
      "constant": true
    },
    {
      "inputs": [],
      "name": "renounceOwnership",
      "outputs": [],
      "stateMutability": "nonpayable",
      "type": "function"
    },
    {
      "inputs": [
        {
          "internalType": "bytes32",
          "name": "role",
          "type": "bytes32"
        },
        {
          "internalType": "address",
          "name": "account",
          "type": "address"
        }
      ],
      "name": "renounceRole",
      "outputs": [],
      "stateMutability": "nonpayable",
      "type": "function"
    },
    {
      "inputs": [
        {
          "internalType": "bytes32",
          "name": "role",
          "type": "bytes32"
        },
        {
          "internalType": "address",
          "name": "account",
          "type": "address"
        }
      ],
      "name": "revokeRole",
      "outputs": [],
      "stateMutability": "nonpayable",
      "type": "function"
    },
    {
      "inputs": [
        {
          "internalType": "address",
          "name": "from",
          "type": "address"
        },
        {
          "internalType": "address",
          "name": "to",
          "type": "address"
        },
        {
          "internalType": "uint256",
          "name": "tokenId",
          "type": "uint256"
        }
      ],
      "name": "safeTransferFrom",
      "outputs": [],
      "stateMutability": "nonpayable",
      "type": "function"
    },
    {
      "inputs": [
        {
          "internalType": "address",
          "name": "from",
          "type": "address"
        },
        {
          "internalType": "address",
          "name": "to",
          "type": "address"
        },
        {
          "internalType": "uint256",
          "name": "tokenId",
          "type": "uint256"
        },
        {
          "internalType": "bytes",
          "name": "_data",
          "type": "bytes"
        }
      ],
      "name": "safeTransferFrom",
      "outputs": [],
      "stateMutability": "nonpayable",
      "type": "function"
    },
    {
      "inputs": [
        {
          "internalType": "address",
          "name": "operator",
          "type": "address"
        },
        {
          "internalType": "bool",
          "name": "approved",
          "type": "bool"
        }
      ],
      "name": "setApprovalForAll",
      "outputs": [],
      "stateMutability": "nonpayable",
      "type": "function"
    },
    {
      "inputs": [
        {
          "internalType": "bytes4",
          "name": "interfaceId",
          "type": "bytes4"
        }
      ],
      "name": "supportsInterface",
      "outputs": [
        {
          "internalType": "bool",
          "name": "",
          "type": "bool"
        }
      ],
      "stateMutability": "view",
      "type": "function",
      "constant": true
    },
    {
      "inputs": [],
      "name": "symbol",
      "outputs": [
        {
          "internalType": "string",
          "name": "",
          "type": "string"
        }
      ],
      "stateMutability": "view",
      "type": "function",
      "constant": true
    },
    {
      "inputs": [
        {
          "internalType": "uint256",
          "name": "index",
          "type": "uint256"
        }
      ],
      "name": "tokenByIndex",
      "outputs": [
        {
          "internalType": "uint256",
          "name": "",
          "type": "uint256"
        }
      ],
      "stateMutability": "view",
      "type": "function",
      "constant": true
    },
    {
      "inputs": [
        {
          "internalType": "address",
          "name": "owner",
          "type": "address"
        },
        {
          "internalType": "uint256",
          "name": "index",
          "type": "uint256"
        }
      ],
      "name": "tokenOfOwnerByIndex",
      "outputs": [
        {
          "internalType": "uint256",
          "name": "",
          "type": "uint256"
        }
      ],
      "stateMutability": "view",
      "type": "function",
      "constant": true
    },
    {
      "inputs": [
        {
          "internalType": "uint256",
          "name": "_tokenId",
          "type": "uint256"
        }
      ],
      "name": "tokenURI",
      "outputs": [
        {
          "internalType": "string",
          "name": "",
          "type": "string"
        }
      ],
      "stateMutability": "view",
      "type": "function",
      "constant": true
    },
    {
      "inputs": [],
      "name": "totalSupply",
      "outputs": [
        {
          "internalType": "uint256",
          "name": "",
          "type": "uint256"
        }
      ],
      "stateMutability": "view",
      "type": "function",
      "constant": true
    },
    {
      "inputs": [
        {
          "internalType": "address",
          "name": "from",
          "type": "address"
        },
        {
          "internalType": "address",
          "name": "to",
          "type": "address"
        },
        {
          "internalType": "uint256",
          "name": "tokenId",
          "type": "uint256"
        }
      ],
      "name": "transferFrom",
      "outputs": [],
      "stateMutability": "nonpayable",
      "type": "function"
    },
    {
      "inputs": [
        {
          "internalType": "address",
          "name": "newOwner",
          "type": "address"
        }
      ],
      "name": "transferOwnership",
      "outputs": [],
      "stateMutability": "nonpayable",
      "type": "function"
    },
    {
      "inputs": [],
      "name": "unpause",
      "outputs": [],
      "stateMutability": "nonpayable",
      "type": "function"
    }
  ],
  "bytecode": "0x608060405267016345785d8a0000601155662386f26fc100006012556107dc60135560196014553480156200003357600080fd5b506040518060400160405280600681526020017f41524341444d00000000000000000000000000000000000000000000000000008152506040518060400160405280600381526020017f415243000000000000000000000000000000000000000000000000000000000081525073465cd41394eb35931f39fdd8507a230ff362f98660405180608001604052806051815260200162005f7d6051913983838282828160029080519060200190620000ec92919062000673565b5080600390805190602001906200010592919062000673565b5050506000600c60006101000a81548160ff02191690831515021790555080600e90805190602001906200013b92919062000673565b50620001606000801b620001546200025060201b60201c565b6200026c60201b60201c565b620001a17f9f2df0fed2c77648de5860a4cc508cd0818c85b8b8a1ab4ceeef8d981c8956a6620001956200025060201b60201c565b6200026c60201b60201c565b620001e27f65d7a28e3265b37a6474929f336521b332c1681b933f6cb9f3376673440d862a620001d66200025060201b60201c565b6200026c60201b60201c565b50505062000205620001f96200025060201b60201c565b6200028260201b60201c565b81601560006101000a81548173ffffffffffffffffffffffffffffffffffffffff021916908373ffffffffffffffffffffffffffffffffffffffff1602179055505050505062000788565b6000620002676200034860201b62001ceb1760201c565b905090565b6200027e8282620003fb60201b60201c565b5050565b6000600f60009054906101000a900473ffffffffffffffffffffffffffffffffffffffff16905081600f60006101000a81548173ffffffffffffffffffffffffffffffffffffffff021916908373ffffffffffffffffffffffffffffffffffffffff1602179055508173ffffffffffffffffffffffffffffffffffffffff168173ffffffffffffffffffffffffffffffffffffffff167f8be0079c531659141344cd1fd0a4f28419497f9722a3daafe3b4186f6b6457e060405160405180910390a35050565b60003073ffffffffffffffffffffffffffffffffffffffff163373ffffffffffffffffffffffffffffffffffffffff161415620003f457600080368080601f016020809104026020016040519081016040528093929190818152602001838380828437600081840152601f19601f820116905080830192505050505050509050600080369050905073ffffffffffffffffffffffffffffffffffffffff818301511692505050620003f8565b3390505b90565b6200041282826200044360201b62001d9c1760201c565b6200043e81600160008581526020019081526020016000206200053460201b62001e7c1790919060201c565b505050565b6200045582826200056c60201b60201c565b6200053057600160008084815260200190815260200160002060000160008373ffffffffffffffffffffffffffffffffffffffff1673ffffffffffffffffffffffffffffffffffffffff16815260200190815260200160002060006101000a81548160ff021916908315150217905550620004d56200025060201b60201c565b73ffffffffffffffffffffffffffffffffffffffff168173ffffffffffffffffffffffffffffffffffffffff16837f2f8788117e7eff1d82e926ec794901d17c78024a50270940304540a733656f0d60405160405180910390a45b5050565b600062000564836000018373ffffffffffffffffffffffffffffffffffffffff1660001b620005d660201b60201c565b905092915050565b600080600084815260200190815260200160002060000160008373ffffffffffffffffffffffffffffffffffffffff1673ffffffffffffffffffffffffffffffffffffffff16815260200190815260200160002060009054906101000a900460ff16905092915050565b6000620005ea83836200065060201b60201c565b620006455782600001829080600181540180825580915050600190039060005260206000200160009091909190915055826000018054905083600101600084815260200190815260200160002081905550600190506200064a565b600090505b92915050565b600080836001016000848152602001908152602001600020541415905092915050565b828054620006819062000752565b90600052602060002090601f016020900481019282620006a55760008555620006f1565b82601f10620006c057805160ff1916838001178555620006f1565b82800160010185558215620006f1579182015b82811115620006f0578251825591602001919060010190620006d3565b5b50905062000700919062000704565b5090565b5b808211156200071f57600081600090555060010162000705565b5090565b7f4e487b7100000000000000000000000000000000000000000000000000000000600052602260045260246000fd5b600060028204905060018216806200076b57607f821691505b6020821081141562000782576200078162000723565b5b50919050565b6157e580620007986000396000f3fe60806040526004361061025b5760003560e01c8063715018a611610144578063c87b56dd116100b6578063d547cfb71161007a578063d547cfb7146108fa578063e0aea1e514610925578063e63ab1e91461094e578063e8e7426e14610979578063e985e9c514610995578063f2fde38b146109d25761025b565b8063c87b56dd14610801578063ca15c8731461083e578063cd7c03261461087b578063d5391393146108a6578063d547741f146108d15761025b565b80639010d07c116101085780639010d07c146106df57806391d148541461071c57806395d89b4114610759578063a217fddf14610784578063a22cb465146107af578063b88d4fde146107d85761025b565b8063715018a614610641578063755edd17146106585780638456cb59146106745780638811f83e1461068b5780638da5cb5b146106b45761025b565b80632f745c59116101dd578063483b4732116101a1578063483b47321461050d5780634f6ccce7146105365780635c975abb146105735780636352211e1461059e5780636a627842146105db57806370a08231146106045761025b565b80632f745c591461043e57806336568abe1461047b5780633f4ba83a146104a457806342842e0e146104bb57806342966c68146104e45761025b565b8063095ea7b311610224578063095ea7b31461035b57806318160ddd1461038457806323b872dd146103af578063248a9ca3146103d85780632f2ff15d146104155761025b565b80620e7fa81461026057806301ffc9a71461028b57806306fdde03146102c8578063081812fc146102f357806308fc299b14610330575b600080fd5b34801561026c57600080fd5b506102756109fb565b6040516102829190613bd1565b60405180910390f35b34801561029757600080fd5b506102b260048036038101906102ad9190613c58565b610a05565b6040516102bf9190613ca0565b60405180910390f35b3480156102d457600080fd5b506102dd610a17565b6040516102ea9190613d54565b60405180910390f35b3480156102ff57600080fd5b5061031a60048036038101906103159190613da2565b610aa9565b6040516103279190613e10565b60405180910390f35b34801561033c57600080fd5b50610345610b2e565b6040516103529190613bd1565b60405180910390f35b34801561036757600080fd5b50610382600480360381019061037d9190613e57565b610b38565b005b34801561039057600080fd5b50610399610c50565b6040516103a69190613bd1565b60405180910390f35b3480156103bb57600080fd5b506103d660048036038101906103d19190613e97565b610c5d565b005b3480156103e457600080fd5b506103ff60048036038101906103fa9190613f20565b610cbd565b60405161040c9190613f5c565b60405180910390f35b34801561042157600080fd5b5061043c60048036038101906104379190613f77565b610cdc565b005b34801561044a57600080fd5b5061046560048036038101906104609190613e57565b610d05565b6040516104729190613bd1565b60405180910390f35b34801561048757600080fd5b506104a2600480360381019061049d9190613f77565b610daa565b005b3480156104b057600080fd5b506104b9610e2d565b005b3480156104c757600080fd5b506104e260048036038101906104dd9190613e97565b610ea7565b005b3480156104f057600080fd5b5061050b60048036038101906105069190613da2565b610ec7565b005b34801561051957600080fd5b50610534600480360381019061052f9190613da2565b610f23565b005b34801561054257600080fd5b5061055d60048036038101906105589190613da2565b610fa9565b60405161056a9190613bd1565b60405180910390f35b34801561057f57600080fd5b5061058861101a565b6040516105959190613ca0565b60405180910390f35b3480156105aa57600080fd5b506105c560048036038101906105c09190613da2565b611031565b6040516105d29190613e10565b60405180910390f35b3480156105e757600080fd5b5061060260048036038101906105fd9190613fb7565b6110e3565b005b34801561061057600080fd5b5061062b60048036038101906106269190613fb7565b611173565b6040516106389190613bd1565b60405180910390f35b34801561064d57600080fd5b5061065661122b565b005b610672600480360381019061066d9190613fb7565b6112b3565b005b34801561068057600080fd5b5061068961149e565b005b34801561069757600080fd5b506106b260048036038101906106ad9190613da2565b611518565b005b3480156106c057600080fd5b506106c961159e565b6040516106d69190613e10565b60405180910390f35b3480156106eb57600080fd5b5061070660048036038101906107019190613fe4565b6115c8565b6040516107139190613e10565b60405180910390f35b34801561072857600080fd5b50610743600480360381019061073e9190613f77565b6115f7565b6040516107509190613ca0565b60405180910390f35b34801561076557600080fd5b5061076e611661565b60405161077b9190613d54565b60405180910390f35b34801561079057600080fd5b506107996116f3565b6040516107a69190613f5c565b60405180910390f35b3480156107bb57600080fd5b506107d660048036038101906107d19190614050565b6116fa565b005b3480156107e457600080fd5b506107ff60048036038101906107fa91906141c5565b611710565b005b34801561080d57600080fd5b5061082860048036038101906108239190613da2565b611772565b6040516108359190613d54565b60405180910390f35b34801561084a57600080fd5b5061086560048036038101906108609190613f20565b6117ac565b6040516108729190613bd1565b60405180910390f35b34801561088757600080fd5b506108906117d0565b60405161089d9190613e10565b60405180910390f35b3480156108b257600080fd5b506108bb6117f6565b6040516108c89190613f5c565b60405180910390f35b3480156108dd57600080fd5b506108f860048036038101906108f39190613f77565b61181a565b005b34801561090657600080fd5b5061090f611843565b60405161091c9190613d54565b60405180910390f35b34801561093157600080fd5b5061094c60048036038101906109479190613e57565b611852565b005b34801561095a57600080fd5b50610963611927565b6040516109709190613f5c565b60405180910390f35b610993600480360381019061098e9190613fb7565b61194b565b005b3480156109a157600080fd5b506109bc60048036038101906109b79190614248565b611b00565b6040516109c99190613ca0565b60405180910390f35b3480156109de57600080fd5b506109f960048036038101906109f49190613fb7565b611bf3565b005b6000601254905090565b6000610a1082611eac565b9050919050565b606060028054610a26906142b7565b80601f0160208091040260200160405190810160405280929190818152602001828054610a52906142b7565b8015610a9f5780601f10610a7457610100808354040283529160200191610a9f565b820191906000526020600020905b815481529060010190602001808311610a8257829003601f168201915b5050505050905090565b6000610ab482611f26565b610af3576040517f08c379a0000000000000000000000000000000000000000000000000000000008152600401610aea9061435b565b60405180910390fd5b6006600083815260200190815260200160002060009054906101000a900473ffffffffffffffffffffffffffffffffffffffff169050919050565b6000601454905090565b6000610b4382611031565b90508073ffffffffffffffffffffffffffffffffffffffff168373ffffffffffffffffffffffffffffffffffffffff161415610bb4576040517f08c379a0000000000000000000000000000000000000000000000000000000008152600401610bab906143ed565b60405180910390fd5b8073ffffffffffffffffffffffffffffffffffffffff16610bd3611f92565b73ffffffffffffffffffffffffffffffffffffffff161480610c025750610c0181610bfc611f92565b611b00565b5b610c41576040517f08c379a0000000000000000000000000000000000000000000000000000000008152600401610c389061447f565b60405180910390fd5b610c4b8383611fa1565b505050565b6000600a80549050905090565b610c6e610c68611f92565b8261205a565b610cad576040517f08c379a0000000000000000000000000000000000000000000000000000000008152600401610ca490614511565b60405180910390fd5b610cb8838383612138565b505050565b6000806000838152602001908152602001600020600101549050919050565b610ce582610cbd565b610cf681610cf1611f92565b612394565b610d008383612431565b505050565b6000610d1083611173565b8210610d51576040517f08c379a0000000000000000000000000000000000000000000000000000000008152600401610d48906145a3565b60405180910390fd5b600860008473ffffffffffffffffffffffffffffffffffffffff1673ffffffffffffffffffffffffffffffffffffffff168152602001908152602001600020600083815260200190815260200160002054905092915050565b610db2611f92565b73ffffffffffffffffffffffffffffffffffffffff168173ffffffffffffffffffffffffffffffffffffffff1614610e1f576040517f08c379a0000000000000000000000000000000000000000000000000000000008152600401610e1690614635565b60405180910390fd5b610e298282612465565b5050565b610e5e7f65d7a28e3265b37a6474929f336521b332c1681b933f6cb9f3376673440d862a610e59611f92565b6115f7565b610e9d576040517f08c379a0000000000000000000000000000000000000000000000000000000008152600401610e94906146c7565b60405180910390fd5b610ea5612499565b565b610ec283838360405180602001604052806000815250611710565b505050565b610ed8610ed2611f92565b8261205a565b610f17576040517f08c379a0000000000000000000000000000000000000000000000000000000008152600401610f0e90614759565b60405180910390fd5b610f208161253b565b50565b610f2b611f92565b73ffffffffffffffffffffffffffffffffffffffff16610f4961159e565b73ffffffffffffffffffffffffffffffffffffffff1614610f9f576040517f08c379a0000000000000000000000000000000000000000000000000000000008152600401610f96906147c5565b60405180910390fd5b8060128190555050565b6000610fb3610c50565b8210610ff4576040517f08c379a0000000000000000000000000000000000000000000000000000000008152600401610feb90614857565b60405180910390fd5b600a828154811061100857611007614877565b5b90600052602060002001549050919050565b6000600c60009054906101000a900460ff16905090565b6000806004600084815260200190815260200160002060009054906101000a900473ffffffffffffffffffffffffffffffffffffffff169050600073ffffffffffffffffffffffffffffffffffffffff168173ffffffffffffffffffffffffffffffffffffffff1614156110da576040517f08c379a00000000000000000000000000000000000000000000000000000000081526004016110d190614918565b60405180910390fd5b80915050919050565b6111147f9f2df0fed2c77648de5860a4cc508cd0818c85b8b8a1ab4ceeef8d981c8956a661110f611f92565b6115f7565b611153576040517f08c379a000000000000000000000000000000000000000000000000000000000815260040161114a906149aa565b60405180910390fd5b61116681611161600d61264c565b61265a565b611170600d612828565b50565b60008073ffffffffffffffffffffffffffffffffffffffff168273ffffffffffffffffffffffffffffffffffffffff1614156111e4576040517f08c379a00000000000000000000000000000000000000000000000000000000081526004016111db90614a3c565b60405180910390fd5b600560008373ffffffffffffffffffffffffffffffffffffffff1673ffffffffffffffffffffffffffffffffffffffff168152602001908152602001600020549050919050565b611233611f92565b73ffffffffffffffffffffffffffffffffffffffff1661125161159e565b73ffffffffffffffffffffffffffffffffffffffff16146112a7576040517f08c379a000000000000000000000000000000000000000000000000000000000815260040161129e906147c5565b60405180910390fd5b6112b1600061283e565b565b6001601660003373ffffffffffffffffffffffffffffffffffffffff1673ffffffffffffffffffffffffffffffffffffffff16815260200190815260200160002060000160008282546113069190614a8b565b92505081905550600a601660003373ffffffffffffffffffffffffffffffffffffffff1673ffffffffffffffffffffffffffffffffffffffff1681526020019081526020016000206000015410611392576040517f08c379a000000000000000000000000000000000000000000000000000000000815260040161138990614b2d565b60405180910390fd5b60135461139d610c50565b11156113de576040517f08c379a00000000000000000000000000000000000000000000000000000000081526004016113d590614b99565b60405180910390fd5b601154341015611423576040517f08c379a000000000000000000000000000000000000000000000000000000000815260040161141a90614c05565b60405180910390fd5b73465cd41394eb35931f39fdd8507a230ff362f98673ffffffffffffffffffffffffffffffffffffffff166108fc349081150290604051600060405180830381858888f1935050505015801561147d573d6000803e3d6000fd5b506114886010612828565b61149b81611496601061264c565b61265a565b50565b6114cf7f65d7a28e3265b37a6474929f336521b332c1681b933f6cb9f3376673440d862a6114ca611f92565b6115f7565b61150e576040517f08c379a000000000000000000000000000000000000000000000000000000000815260040161150590614c97565b60405180910390fd5b611516612904565b565b611520611f92565b73ffffffffffffffffffffffffffffffffffffffff1661153e61159e565b73ffffffffffffffffffffffffffffffffffffffff1614611594576040517f08c379a000000000000000000000000000000000000000000000000000000000815260040161158b906147c5565b60405180910390fd5b8060128190555050565b6000600f60009054906101000a900473ffffffffffffffffffffffffffffffffffffffff16905090565b60006115ef82600160008681526020019081526020016000206129a790919063ffffffff16565b905092915050565b600080600084815260200190815260200160002060000160008373ffffffffffffffffffffffffffffffffffffffff1673ffffffffffffffffffffffffffffffffffffffff16815260200190815260200160002060009054906101000a900460ff16905092915050565b606060038054611670906142b7565b80601f016020809104026020016040519081016040528092919081815260200182805461169c906142b7565b80156116e95780601f106116be576101008083540402835291602001916116e9565b820191906000526020600020905b8154815290600101906020018083116116cc57829003601f168201915b5050505050905090565b6000801b81565b61170c611705611f92565b83836129c1565b5050565b61172161171b611f92565b8361205a565b611760576040517f08c379a000000000000000000000000000000000000000000000000000000000815260040161175790614511565b60405180910390fd5b61176c84848484612b2e565b50505050565b606061177c611843565b61178583612b8a565b604051602001611796929190614d3f565b6040516020818303038152906040529050919050565b60006117c960016000848152602001908152602001600020612ceb565b9050919050565b601560009054906101000a900473ffffffffffffffffffffffffffffffffffffffff1681565b7f9f2df0fed2c77648de5860a4cc508cd0818c85b8b8a1ab4ceeef8d981c8956a681565b61182382610cbd565b6118348161182f611f92565b612394565b61183e8383612465565b505050565b606061184d612d00565b905090565b61185a611f92565b73ffffffffffffffffffffffffffffffffffffffff1661187861159e565b73ffffffffffffffffffffffffffffffffffffffff16146118ce576040517f08c379a00000000000000000000000000000000000000000000000000000000081526004016118c5906147c5565b60405180910390fd5b6014546118d9610c50565b11156118e457600080fd5b6000600190505b818111611922576118fc6010612828565b61190f8361190a601061264c565b61265a565b808061191a90614d6e565b9150506118eb565b505050565b7f65d7a28e3265b37a6474929f336521b332c1681b933f6cb9f3376673440d862a81565b6001601660003373ffffffffffffffffffffffffffffffffffffffff1673ffffffffffffffffffffffffffffffffffffffff168152602001908152602001600020600001600082825461199e9190614a8b565b925050819055506002601660003373ffffffffffffffffffffffffffffffffffffffff1673ffffffffffffffffffffffffffffffffffffffff1681526020019081526020016000206000015410611a2a576040517f08c379a0000000000000000000000000000000000000000000000000000000008152600401611a2190614b2d565b60405180910390fd5b601454611a35610c50565b1115611a4057600080fd5b601254341015611a85576040517f08c379a0000000000000000000000000000000000000000000000000000000008152600401611a7c90614e03565b60405180910390fd5b73465cd41394eb35931f39fdd8507a230ff362f98673ffffffffffffffffffffffffffffffffffffffff166108fc349081150290604051600060405180830381858888f19350505050158015611adf573d6000803e3d6000fd5b50611aea6010612828565b611afd81611af8601061264c565b61265a565b50565b600080601560009054906101000a900473ffffffffffffffffffffffffffffffffffffffff1690508273ffffffffffffffffffffffffffffffffffffffff168173ffffffffffffffffffffffffffffffffffffffff1663c4552791866040518263ffffffff1660e01b8152600401611b789190613e10565b602060405180830381865afa158015611b95573d6000803e3d6000fd5b505050506040513d601f19601f82011682018060405250810190611bb99190614e61565b73ffffffffffffffffffffffffffffffffffffffff161415611bdf576001915050611bed565b611be98484612d92565b9150505b92915050565b611bfb611f92565b73ffffffffffffffffffffffffffffffffffffffff16611c1961159e565b73ffffffffffffffffffffffffffffffffffffffff1614611c6f576040517f08c379a0000000000000000000000000000000000000000000000000000000008152600401611c66906147c5565b60405180910390fd5b600073ffffffffffffffffffffffffffffffffffffffff168173ffffffffffffffffffffffffffffffffffffffff161415611cdf576040517f08c379a0000000000000000000000000000000000000000000000000000000008152600401611cd690614f00565b60405180910390fd5b611ce88161283e565b50565b60003073ffffffffffffffffffffffffffffffffffffffff163373ffffffffffffffffffffffffffffffffffffffff161415611d9557600080368080601f016020809104026020016040519081016040528093929190818152602001838380828437600081840152601f19601f820116905080830192505050505050509050600080369050905073ffffffffffffffffffffffffffffffffffffffff818301511692505050611d99565b3390505b90565b611da682826115f7565b611e7857600160008084815260200190815260200160002060000160008373ffffffffffffffffffffffffffffffffffffffff1673ffffffffffffffffffffffffffffffffffffffff16815260200190815260200160002060006101000a81548160ff021916908315150217905550611e1d611f92565b73ffffffffffffffffffffffffffffffffffffffff168173ffffffffffffffffffffffffffffffffffffffff16837f2f8788117e7eff1d82e926ec794901d17c78024a50270940304540a733656f0d60405160405180910390a45b5050565b6000611ea4836000018373ffffffffffffffffffffffffffffffffffffffff1660001b612e26565b905092915050565b60007f780e9d63000000000000000000000000000000000000000000000000000000007bffffffffffffffffffffffffffffffffffffffffffffffffffffffff1916827bffffffffffffffffffffffffffffffffffffffffffffffffffffffff19161480611f1f5750611f1e82612e96565b5b9050919050565b60008073ffffffffffffffffffffffffffffffffffffffff166004600084815260200190815260200160002060009054906101000a900473ffffffffffffffffffffffffffffffffffffffff1673ffffffffffffffffffffffffffffffffffffffff1614159050919050565b6000611f9c611ceb565b905090565b816006600083815260200190815260200160002060006101000a81548173ffffffffffffffffffffffffffffffffffffffff021916908373ffffffffffffffffffffffffffffffffffffffff160217905550808273ffffffffffffffffffffffffffffffffffffffff1661201483611031565b73ffffffffffffffffffffffffffffffffffffffff167f8c5be1e5ebec7d5bd14f71427d1e84f3dd0314c0f7b2291e5b200ac8c7c3b92560405160405180910390a45050565b600061206582611f26565b6120a4576040517f08c379a000000000000000000000000000000000000000000000000000000000815260040161209b90614f92565b60405180910390fd5b60006120af83611031565b90508073ffffffffffffffffffffffffffffffffffffffff168473ffffffffffffffffffffffffffffffffffffffff16148061211e57508373ffffffffffffffffffffffffffffffffffffffff1661210684610aa9565b73ffffffffffffffffffffffffffffffffffffffff16145b8061212f575061212e8185611b00565b5b91505092915050565b8273ffffffffffffffffffffffffffffffffffffffff1661215882611031565b73ffffffffffffffffffffffffffffffffffffffff16146121ae576040517f08c379a00000000000000000000000000000000000000000000000000000000081526004016121a590615024565b60405180910390fd5b600073ffffffffffffffffffffffffffffffffffffffff168273ffffffffffffffffffffffffffffffffffffffff16141561221e576040517f08c379a0000000000000000000000000000000000000000000000000000000008152600401612215906150b6565b60405180910390fd5b612229838383612f78565b612234600082611fa1565b6001600560008573ffffffffffffffffffffffffffffffffffffffff1673ffffffffffffffffffffffffffffffffffffffff168152602001908152602001600020600082825461228491906150d6565b925050819055506001600560008473ffffffffffffffffffffffffffffffffffffffff1673ffffffffffffffffffffffffffffffffffffffff16815260200190815260200160002060008282546122db9190614a8b565b92505081905550816004600083815260200190815260200160002060006101000a81548173ffffffffffffffffffffffffffffffffffffffff021916908373ffffffffffffffffffffffffffffffffffffffff160217905550808273ffffffffffffffffffffffffffffffffffffffff168473ffffffffffffffffffffffffffffffffffffffff167fddf252ad1be2c89b69c2b068fc378daa952ba7f163c4a11628f55a4df523b3ef60405160405180910390a4505050565b61239e82826115f7565b61242d576123c38173ffffffffffffffffffffffffffffffffffffffff166014612f88565b6123d18360001c6020612f88565b6040516020016123e29291906151a2565b6040516020818303038152906040526040517f08c379a00000000000000000000000000000000000000000000000000000000081526004016124249190613d54565b60405180910390fd5b5050565b61243b8282611d9c565b6124608160016000858152602001908152602001600020611e7c90919063ffffffff16565b505050565b61246f82826131c4565b61249481600160008581526020019081526020016000206132a590919063ffffffff16565b505050565b6124a161101a565b6124e0576040517f08c379a00000000000000000000000000000000000000000000000000000000081526004016124d790615228565b60405180910390fd5b6000600c60006101000a81548160ff0219169083151502179055507f5db9ee0a495bf2e6ff9c91a7834c1ba4fdd244a5e8aa4e537bd38aeae4b073aa612524611f92565b6040516125319190613e10565b60405180910390a1565b600061254682611031565b905061255481600084612f78565b61255f600083611fa1565b6001600560008373ffffffffffffffffffffffffffffffffffffffff1673ffffffffffffffffffffffffffffffffffffffff16815260200190815260200160002060008282546125af91906150d6565b925050819055506004600083815260200190815260200160002060006101000a81549073ffffffffffffffffffffffffffffffffffffffff021916905581600073ffffffffffffffffffffffffffffffffffffffff168273ffffffffffffffffffffffffffffffffffffffff167fddf252ad1be2c89b69c2b068fc378daa952ba7f163c4a11628f55a4df523b3ef60405160405180910390a45050565b600081600001549050919050565b600073ffffffffffffffffffffffffffffffffffffffff168273ffffffffffffffffffffffffffffffffffffffff1614156126ca576040517f08c379a00000000000000000000000000000000000000000000000000000000081526004016126c190615294565b60405180910390fd5b6126d381611f26565b15612713576040517f08c379a000000000000000000000000000000000000000000000000000000000815260040161270a90615300565b60405180910390fd5b61271f60008383612f78565b6001600560008473ffffffffffffffffffffffffffffffffffffffff1673ffffffffffffffffffffffffffffffffffffffff168152602001908152602001600020600082825461276f9190614a8b565b92505081905550816004600083815260200190815260200160002060006101000a81548173ffffffffffffffffffffffffffffffffffffffff021916908373ffffffffffffffffffffffffffffffffffffffff160217905550808273ffffffffffffffffffffffffffffffffffffffff16600073ffffffffffffffffffffffffffffffffffffffff167fddf252ad1be2c89b69c2b068fc378daa952ba7f163c4a11628f55a4df523b3ef60405160405180910390a45050565b6001816000016000828254019250508190555050565b6000600f60009054906101000a900473ffffffffffffffffffffffffffffffffffffffff16905081600f60006101000a81548173ffffffffffffffffffffffffffffffffffffffff021916908373ffffffffffffffffffffffffffffffffffffffff1602179055508173ffffffffffffffffffffffffffffffffffffffff168173ffffffffffffffffffffffffffffffffffffffff167f8be0079c531659141344cd1fd0a4f28419497f9722a3daafe3b4186f6b6457e060405160405180910390a35050565b61290c61101a565b1561294c576040517f08c379a00000000000000000000000000000000000000000000000000000000081526004016129439061536c565b60405180910390fd5b6001600c60006101000a81548160ff0219169083151502179055507f62e78cea01bee320cd4e420270b5ea74000d11b0c9f74754ebdbfc544b05a258612990611f92565b60405161299d9190613e10565b60405180910390a1565b60006129b683600001836132d5565b60001c905092915050565b8173ffffffffffffffffffffffffffffffffffffffff168373ffffffffffffffffffffffffffffffffffffffff161415612a30576040517f08c379a0000000000000000000000000000000000000000000000000000000008152600401612a27906153d8565b60405180910390fd5b80600760008573ffffffffffffffffffffffffffffffffffffffff1673ffffffffffffffffffffffffffffffffffffffff16815260200190815260200160002060008473ffffffffffffffffffffffffffffffffffffffff1673ffffffffffffffffffffffffffffffffffffffff16815260200190815260200160002060006101000a81548160ff0219169083151502179055508173ffffffffffffffffffffffffffffffffffffffff168373ffffffffffffffffffffffffffffffffffffffff167f17307eab39ab6107e8899845ad3d59bd9653f200f220920489ca2b5937696c3183604051612b219190613ca0565b60405180910390a3505050565b612b39848484612138565b612b4584848484613300565b612b84576040517f08c379a0000000000000000000000000000000000000000000000000000000008152600401612b7b9061546a565b60405180910390fd5b50505050565b60606000821415612bd2576040518060400160405280600181526020017f30000000000000000000000000000000000000000000000000000000000000008152509050612ce6565b600082905060005b60008214612c04578080612bed90614d6e565b915050600a82612bfd91906154b9565b9150612bda565b60008167ffffffffffffffff811115612c2057612c1f61409a565b5b6040519080825280601f01601f191660200182016040528015612c525781602001600182028036833780820191505090505b5090505b60008514612cdf57600182612c6b91906150d6565b9150600a85612c7a91906154ea565b6030612c869190614a8b565b60f81b818381518110612c9c57612c9b614877565b5b60200101907effffffffffffffffffffffffffffffffffffffffffffffffffffffffffffff1916908160001a905350600a85612cd891906154b9565b9450612c56565b8093505050505b919050565b6000612cf982600001613488565b9050919050565b6060600e8054612d0f906142b7565b80601f0160208091040260200160405190810160405280929190818152602001828054612d3b906142b7565b8015612d885780601f10612d5d57610100808354040283529160200191612d88565b820191906000526020600020905b815481529060010190602001808311612d6b57829003601f168201915b5050505050905090565b6000600760008473ffffffffffffffffffffffffffffffffffffffff1673ffffffffffffffffffffffffffffffffffffffff16815260200190815260200160002060008373ffffffffffffffffffffffffffffffffffffffff1673ffffffffffffffffffffffffffffffffffffffff16815260200190815260200160002060009054906101000a900460ff16905092915050565b6000612e328383613499565b612e8b578260000182908060018154018082558091505060019003906000526020600020016000909190919091505582600001805490508360010160008481526020019081526020016000208190555060019050612e90565b600090505b92915050565b60007f80ac58cd000000000000000000000000000000000000000000000000000000007bffffffffffffffffffffffffffffffffffffffffffffffffffffffff1916827bffffffffffffffffffffffffffffffffffffffffffffffffffffffff19161480612f6157507f5b5e139f000000000000000000000000000000000000000000000000000000007bffffffffffffffffffffffffffffffffffffffffffffffffffffffff1916827bffffffffffffffffffffffffffffffffffffffffffffffffffffffff1916145b80612f715750612f70826134bc565b5b9050919050565b612f83838383613536565b505050565b606060006002836002612f9b919061551b565b612fa59190614a8b565b67ffffffffffffffff811115612fbe57612fbd61409a565b5b6040519080825280601f01601f191660200182016040528015612ff05781602001600182028036833780820191505090505b5090507f30000000000000000000000000000000000000000000000000000000000000008160008151811061302857613027614877565b5b60200101907effffffffffffffffffffffffffffffffffffffffffffffffffffffffffffff1916908160001a9053507f78000000000000000000000000000000000000000000000000000000000000008160018151811061308c5761308b614877565b5b60200101907effffffffffffffffffffffffffffffffffffffffffffffffffffffffffffff1916908160001a905350600060018460026130cc919061551b565b6130d69190614a8b565b90505b6001811115613176577f3031323334353637383961626364656600000000000000000000000000000000600f86166010811061311857613117614877565b5b1a60f81b82828151811061312f5761312e614877565b5b60200101907effffffffffffffffffffffffffffffffffffffffffffffffffffffffffffff1916908160001a905350600485901c94508061316f90615575565b90506130d9565b50600084146131ba576040517f08c379a00000000000000000000000000000000000000000000000000000000081526004016131b1906155eb565b60405180910390fd5b8091505092915050565b6131ce82826115f7565b156132a157600080600084815260200190815260200160002060000160008373ffffffffffffffffffffffffffffffffffffffff1673ffffffffffffffffffffffffffffffffffffffff16815260200190815260200160002060006101000a81548160ff021916908315150217905550613246611f92565b73ffffffffffffffffffffffffffffffffffffffff168173ffffffffffffffffffffffffffffffffffffffff16837ff6391f5c32d9c69d2a47ea670b442974b53935d1edc7fd64eb21e047a839171b60405160405180910390a45b5050565b60006132cd836000018373ffffffffffffffffffffffffffffffffffffffff1660001b61358e565b905092915050565b60008260000182815481106132ed576132ec614877565b5b9060005260206000200154905092915050565b60006133218473ffffffffffffffffffffffffffffffffffffffff166136a2565b1561347b578373ffffffffffffffffffffffffffffffffffffffff1663150b7a0261334a611f92565b8786866040518563ffffffff1660e01b815260040161336c9493929190615660565b6020604051808303816000875af19250505080156133a857506040513d601f19601f820116820180604052508101906133a591906156c1565b60015b61342b573d80600081146133d8576040519150601f19603f3d011682016040523d82523d6000602084013e6133dd565b606091505b50600081511415613423576040517f08c379a000000000000000000000000000000000000000000000000000000000815260040161341a9061546a565b60405180910390fd5b805181602001fd5b63150b7a0260e01b7bffffffffffffffffffffffffffffffffffffffffffffffffffffffff1916817bffffffffffffffffffffffffffffffffffffffffffffffffffffffff191614915050613480565b600190505b949350505050565b600081600001805490509050919050565b600080836001016000848152602001908152602001600020541415905092915050565b60007f5a05180f000000000000000000000000000000000000000000000000000000007bffffffffffffffffffffffffffffffffffffffffffffffffffffffff1916827bffffffffffffffffffffffffffffffffffffffffffffffffffffffff1916148061352f575061352e826136b5565b5b9050919050565b61354183838361372f565b61354961101a565b15613589576040517f08c379a000000000000000000000000000000000000000000000000000000000815260040161358090615760565b60405180910390fd5b505050565b600080836001016000848152602001908152602001600020549050600081146136965760006001826135c091906150d6565b90506000600186600001805490506135d891906150d6565b90508181146136475760008660000182815481106135f9576135f8614877565b5b906000526020600020015490508087600001848154811061361d5761361c614877565b5b90600052602060002001819055508387600101600083815260200190815260200160002081905550505b8560000180548061365b5761365a615780565b5b60019003818190600052602060002001600090559055856001016000868152602001908152602001600020600090556001935050505061369c565b60009150505b92915050565b600080823b905060008111915050919050565b60007f7965db0b000000000000000000000000000000000000000000000000000000007bffffffffffffffffffffffffffffffffffffffffffffffffffffffff1916827bffffffffffffffffffffffffffffffffffffffffffffffffffffffff19161480613728575061372782613843565b5b9050919050565b61373a8383836138ad565b600073ffffffffffffffffffffffffffffffffffffffff168373ffffffffffffffffffffffffffffffffffffffff16141561377d57613778816138b2565b6137bc565b8173ffffffffffffffffffffffffffffffffffffffff168373ffffffffffffffffffffffffffffffffffffffff16146137bb576137ba83826138fb565b5b5b600073ffffffffffffffffffffffffffffffffffffffff168273ffffffffffffffffffffffffffffffffffffffff1614156137ff576137fa81613a68565b61383e565b8273ffffffffffffffffffffffffffffffffffffffff168273ffffffffffffffffffffffffffffffffffffffff161461383d5761383c8282613b39565b5b5b505050565b60007f01ffc9a7000000000000000000000000000000000000000000000000000000007bffffffffffffffffffffffffffffffffffffffffffffffffffffffff1916827bffffffffffffffffffffffffffffffffffffffffffffffffffffffff1916149050919050565b505050565b600a80549050600b600083815260200190815260200160002081905550600a81908060018154018082558091505060019003906000526020600020016000909190919091505550565b6000600161390884611173565b61391291906150d6565b90506000600960008481526020019081526020016000205490508181146139f7576000600860008673ffffffffffffffffffffffffffffffffffffffff1673ffffffffffffffffffffffffffffffffffffffff168152602001908152602001600020600084815260200190815260200160002054905080600860008773ffffffffffffffffffffffffffffffffffffffff1673ffffffffffffffffffffffffffffffffffffffff168152602001908152602001600020600084815260200190815260200160002081905550816009600083815260200190815260200160002081905550505b6009600084815260200190815260200160002060009055600860008573ffffffffffffffffffffffffffffffffffffffff1673ffffffffffffffffffffffffffffffffffffffff16815260200190815260200160002060008381526020019081526020016000206000905550505050565b60006001600a80549050613a7c91906150d6565b90506000600b60008481526020019081526020016000205490506000600a8381548110613aac57613aab614877565b5b9060005260206000200154905080600a8381548110613ace57613acd614877565b5b906000526020600020018190555081600b600083815260200190815260200160002081905550600b600085815260200190815260200160002060009055600a805480613b1d57613b1c615780565b5b6001900381819060005260206000200160009055905550505050565b6000613b4483611173565b905081600860008573ffffffffffffffffffffffffffffffffffffffff1673ffffffffffffffffffffffffffffffffffffffff168152602001908152602001600020600083815260200190815260200160002081905550806009600084815260200190815260200160002081905550505050565b6000819050919050565b613bcb81613bb8565b82525050565b6000602082019050613be66000830184613bc2565b92915050565b6000604051905090565b600080fd5b600080fd5b60007fffffffff0000000000000000000000000000000000000000000000000000000082169050919050565b613c3581613c00565b8114613c4057600080fd5b50565b600081359050613c5281613c2c565b92915050565b600060208284031215613c6e57613c6d613bf6565b5b6000613c7c84828501613c43565b91505092915050565b60008115159050919050565b613c9a81613c85565b82525050565b6000602082019050613cb56000830184613c91565b92915050565b600081519050919050565b600082825260208201905092915050565b60005b83811015613cf5578082015181840152602081019050613cda565b83811115613d04576000848401525b50505050565b6000601f19601f8301169050919050565b6000613d2682613cbb565b613d308185613cc6565b9350613d40818560208601613cd7565b613d4981613d0a565b840191505092915050565b60006020820190508181036000830152613d6e8184613d1b565b905092915050565b613d7f81613bb8565b8114613d8a57600080fd5b50565b600081359050613d9c81613d76565b92915050565b600060208284031215613db857613db7613bf6565b5b6000613dc684828501613d8d565b91505092915050565b600073ffffffffffffffffffffffffffffffffffffffff82169050919050565b6000613dfa82613dcf565b9050919050565b613e0a81613def565b82525050565b6000602082019050613e256000830184613e01565b92915050565b613e3481613def565b8114613e3f57600080fd5b50565b600081359050613e5181613e2b565b92915050565b60008060408385031215613e6e57613e6d613bf6565b5b6000613e7c85828601613e42565b9250506020613e8d85828601613d8d565b9150509250929050565b600080600060608486031215613eb057613eaf613bf6565b5b6000613ebe86828701613e42565b9350506020613ecf86828701613e42565b9250506040613ee086828701613d8d565b9150509250925092565b6000819050919050565b613efd81613eea565b8114613f0857600080fd5b50565b600081359050613f1a81613ef4565b92915050565b600060208284031215613f3657613f35613bf6565b5b6000613f4484828501613f0b565b91505092915050565b613f5681613eea565b82525050565b6000602082019050613f716000830184613f4d565b92915050565b60008060408385031215613f8e57613f8d613bf6565b5b6000613f9c85828601613f0b565b9250506020613fad85828601613e42565b9150509250929050565b600060208284031215613fcd57613fcc613bf6565b5b6000613fdb84828501613e42565b91505092915050565b60008060408385031215613ffb57613ffa613bf6565b5b600061400985828601613f0b565b925050602061401a85828601613d8d565b9150509250929050565b61402d81613c85565b811461403857600080fd5b50565b60008135905061404a81614024565b92915050565b6000806040838503121561406757614066613bf6565b5b600061407585828601613e42565b92505060206140868582860161403b565b9150509250929050565b600080fd5b600080fd5b7f4e487b7100000000000000000000000000000000000000000000000000000000600052604160045260246000fd5b6140d282613d0a565b810181811067ffffffffffffffff821117156140f1576140f061409a565b5b80604052505050565b6000614104613bec565b905061411082826140c9565b919050565b600067ffffffffffffffff8211156141305761412f61409a565b5b61413982613d0a565b9050602081019050919050565b82818337600083830152505050565b600061416861416384614115565b6140fa565b90508281526020810184848401111561418457614183614095565b5b61418f848285614146565b509392505050565b600082601f8301126141ac576141ab614090565b5b81356141bc848260208601614155565b91505092915050565b600080600080608085870312156141df576141de613bf6565b5b60006141ed87828801613e42565b94505060206141fe87828801613e42565b935050604061420f87828801613d8d565b925050606085013567ffffffffffffffff8111156142305761422f613bfb565b5b61423c87828801614197565b91505092959194509250565b6000806040838503121561425f5761425e613bf6565b5b600061426d85828601613e42565b925050602061427e85828601613e42565b9150509250929050565b7f4e487b7100000000000000000000000000000000000000000000000000000000600052602260045260246000fd5b600060028204905060018216806142cf57607f821691505b602082108114156142e3576142e2614288565b5b50919050565b7f4552433732313a20617070726f76656420717565727920666f72206e6f6e657860008201527f697374656e7420746f6b656e0000000000000000000000000000000000000000602082015250565b6000614345602c83613cc6565b9150614350826142e9565b604082019050919050565b6000602082019050818103600083015261437481614338565b9050919050565b7f4552433732313a20617070726f76616c20746f2063757272656e74206f776e6560008201527f7200000000000000000000000000000000000000000000000000000000000000602082015250565b60006143d7602183613cc6565b91506143e28261437b565b604082019050919050565b60006020820190508181036000830152614406816143ca565b9050919050565b7f4552433732313a20617070726f76652063616c6c6572206973206e6f74206f7760008201527f6e6572206e6f7220617070726f76656420666f7220616c6c0000000000000000602082015250565b6000614469603883613cc6565b91506144748261440d565b604082019050919050565b600060208201905081810360008301526144988161445c565b9050919050565b7f4552433732313a207472616e736665722063616c6c6572206973206e6f74206f60008201527f776e6572206e6f7220617070726f766564000000000000000000000000000000602082015250565b60006144fb603183613cc6565b91506145068261449f565b604082019050919050565b6000602082019050818103600083015261452a816144ee565b9050919050565b7f455243373231456e756d657261626c653a206f776e657220696e646578206f7560008201527f74206f6620626f756e6473000000000000000000000000000000000000000000602082015250565b600061458d602b83613cc6565b915061459882614531565b604082019050919050565b600060208201905081810360008301526145bc81614580565b9050919050565b7f416363657373436f6e74726f6c3a2063616e206f6e6c792072656e6f756e636560008201527f20726f6c657320666f722073656c660000000000000000000000000000000000602082015250565b600061461f602f83613cc6565b915061462a826145c3565b604082019050919050565b6000602082019050818103600083015261464e81614612565b9050919050565b7f4552433732315072657365744d696e7465725061757365724175746f49643a2060008201527f6d75737420686176652070617573657220726f6c6520746f20756e7061757365602082015250565b60006146b1604083613cc6565b91506146bc82614655565b604082019050919050565b600060208201905081810360008301526146e0816146a4565b9050919050565b7f4552433732314275726e61626c653a2063616c6c6572206973206e6f74206f7760008201527f6e6572206e6f7220617070726f76656400000000000000000000000000000000602082015250565b6000614743603083613cc6565b915061474e826146e7565b604082019050919050565b6000602082019050818103600083015261477281614736565b9050919050565b7f4f776e61626c653a2063616c6c6572206973206e6f7420746865206f776e6572600082015250565b60006147af602083613cc6565b91506147ba82614779565b602082019050919050565b600060208201905081810360008301526147de816147a2565b9050919050565b7f455243373231456e756d657261626c653a20676c6f62616c20696e646578206f60008201527f7574206f6620626f756e64730000000000000000000000000000000000000000602082015250565b6000614841602c83613cc6565b915061484c826147e5565b604082019050919050565b6000602082019050818103600083015261487081614834565b9050919050565b7f4e487b7100000000000000000000000000000000000000000000000000000000600052603260045260246000fd5b7f4552433732313a206f776e657220717565727920666f72206e6f6e657869737460008201527f656e7420746f6b656e0000000000000000000000000000000000000000000000602082015250565b6000614902602983613cc6565b915061490d826148a6565b604082019050919050565b60006020820190508181036000830152614931816148f5565b9050919050565b7f4552433732315072657365744d696e7465725061757365724175746f49643a2060008201527f6d7573742068617665206d696e74657220726f6c6520746f206d696e74000000602082015250565b6000614994603d83613cc6565b915061499f82614938565b604082019050919050565b600060208201905081810360008301526149c381614987565b9050919050565b7f4552433732313a2062616c616e636520717565727920666f7220746865207a6560008201527f726f206164647265737300000000000000000000000000000000000000000000602082015250565b6000614a26602a83613cc6565b9150614a31826149ca565b604082019050919050565b60006020820190508181036000830152614a5581614a19565b9050919050565b7f4e487b7100000000000000000000000000000000000000000000000000000000600052601160045260246000fd5b6000614a9682613bb8565b9150614aa183613bb8565b9250827fffffffffffffffffffffffffffffffffffffffffffffffffffffffffffffffff03821115614ad657614ad5614a5c565b5b828201905092915050565b7f4f6e6c792054776f204e4654204d696e74205065722041646472657373000000600082015250565b6000614b17601d83613cc6565b9150614b2282614ae1565b602082019050919050565b60006020820190508181036000830152614b4681614b0a565b9050919050565b7f416c6c20546f6b656e73204d696e740000000000000000000000000000000000600082015250565b6000614b83600f83613cc6565b9150614b8e82614b4d565b602082019050919050565b60006020820190508181036000830152614bb281614b76565b9050919050565b7f4e6f7420456e6f75676820457468657200000000000000000000000000000000600082015250565b6000614bef601083613cc6565b9150614bfa82614bb9565b602082019050919050565b60006020820190508181036000830152614c1e81614be2565b9050919050565b7f4552433732315072657365744d696e7465725061757365724175746f49643a2060008201527f6d75737420686176652070617573657220726f6c6520746f2070617573650000602082015250565b6000614c81603e83613cc6565b9150614c8c82614c25565b604082019050919050565b60006020820190508181036000830152614cb081614c74565b9050919050565b600081905092915050565b6000614ccd82613cbb565b614cd78185614cb7565b9350614ce7818560208601613cd7565b80840191505092915050565b7f2e6a736f6e000000000000000000000000000000000000000000000000000000600082015250565b6000614d29600583614cb7565b9150614d3482614cf3565b600582019050919050565b6000614d4b8285614cc2565b9150614d578284614cc2565b9150614d6282614d1c565b91508190509392505050565b6000614d7982613bb8565b91507fffffffffffffffffffffffffffffffffffffffffffffffffffffffffffffffff821415614dac57614dab614a5c565b5b600182019050919050565b7f4e6f7420456e6f75676820507269636520746f206d696e740000000000000000600082015250565b6000614ded601883613cc6565b9150614df882614db7565b602082019050919050565b60006020820190508181036000830152614e1c81614de0565b9050919050565b6000614e2e82613def565b9050919050565b614e3e81614e23565b8114614e4957600080fd5b50565b600081519050614e5b81614e35565b92915050565b600060208284031215614e7757614e76613bf6565b5b6000614e8584828501614e4c565b91505092915050565b7f4f776e61626c653a206e6577206f776e657220697320746865207a65726f206160008201527f6464726573730000000000000000000000000000000000000000000000000000602082015250565b6000614eea602683613cc6565b9150614ef582614e8e565b604082019050919050565b60006020820190508181036000830152614f1981614edd565b9050919050565b7f4552433732313a206f70657261746f7220717565727920666f72206e6f6e657860008201527f697374656e7420746f6b656e0000000000000000000000000000000000000000602082015250565b6000614f7c602c83613cc6565b9150614f8782614f20565b604082019050919050565b60006020820190508181036000830152614fab81614f6f565b9050919050565b7f4552433732313a207472616e73666572206f6620746f6b656e2074686174206960008201527f73206e6f74206f776e0000000000000000000000000000000000000000000000602082015250565b600061500e602983613cc6565b915061501982614fb2565b604082019050919050565b6000602082019050818103600083015261503d81615001565b9050919050565b7f4552433732313a207472616e7366657220746f20746865207a65726f2061646460008201527f7265737300000000000000000000000000000000000000000000000000000000602082015250565b60006150a0602483613cc6565b91506150ab82615044565b604082019050919050565b600060208201905081810360008301526150cf81615093565b9050919050565b60006150e182613bb8565b91506150ec83613bb8565b9250828210156150ff576150fe614a5c565b5b828203905092915050565b7f416363657373436f6e74726f6c3a206163636f756e7420000000000000000000600082015250565b6000615140601783614cb7565b915061514b8261510a565b601782019050919050565b7f206973206d697373696e6720726f6c6520000000000000000000000000000000600082015250565b600061518c601183614cb7565b915061519782615156565b601182019050919050565b60006151ad82615133565b91506151b98285614cc2565b91506151c48261517f565b91506151d08284614cc2565b91508190509392505050565b7f5061757361626c653a206e6f7420706175736564000000000000000000000000600082015250565b6000615212601483613cc6565b915061521d826151dc565b602082019050919050565b6000602082019050818103600083015261524181615205565b9050919050565b7f4552433732313a206d696e7420746f20746865207a65726f2061646472657373600082015250565b600061527e602083613cc6565b915061528982615248565b602082019050919050565b600060208201905081810360008301526152ad81615271565b9050919050565b7f4552433732313a20746f6b656e20616c7265616479206d696e74656400000000600082015250565b60006152ea601c83613cc6565b91506152f5826152b4565b602082019050919050565b60006020820190508181036000830152615319816152dd565b9050919050565b7f5061757361626c653a2070617573656400000000000000000000000000000000600082015250565b6000615356601083613cc6565b915061536182615320565b602082019050919050565b6000602082019050818103600083015261538581615349565b9050919050565b7f4552433732313a20617070726f766520746f2063616c6c657200000000000000600082015250565b60006153c2601983613cc6565b91506153cd8261538c565b602082019050919050565b600060208201905081810360008301526153f1816153b5565b9050919050565b7f4552433732313a207472616e7366657220746f206e6f6e20455243373231526560008201527f63656976657220696d706c656d656e7465720000000000000000000000000000602082015250565b6000615454603283613cc6565b915061545f826153f8565b604082019050919050565b6000602082019050818103600083015261548381615447565b9050919050565b7f4e487b7100000000000000000000000000000000000000000000000000000000600052601260045260246000fd5b60006154c482613bb8565b91506154cf83613bb8565b9250826154df576154de61548a565b5b828204905092915050565b60006154f582613bb8565b915061550083613bb8565b9250826155105761550f61548a565b5b828206905092915050565b600061552682613bb8565b915061553183613bb8565b9250817fffffffffffffffffffffffffffffffffffffffffffffffffffffffffffffffff048311821515161561556a57615569614a5c565b5b828202905092915050565b600061558082613bb8565b9150600082141561559457615593614a5c565b5b600182039050919050565b7f537472696e67733a20686578206c656e67746820696e73756666696369656e74600082015250565b60006155d5602083613cc6565b91506155e08261559f565b602082019050919050565b60006020820190508181036000830152615604816155c8565b9050919050565b600081519050919050565b600082825260208201905092915050565b60006156328261560b565b61563c8185615616565b935061564c818560208601613cd7565b61565581613d0a565b840191505092915050565b60006080820190506156756000830187613e01565b6156826020830186613e01565b61568f6040830185613bc2565b81810360608301526156a18184615627565b905095945050505050565b6000815190506156bb81613c2c565b92915050565b6000602082840312156156d7576156d6613bf6565b5b60006156e5848285016156ac565b91505092915050565b7f4552433732315061757361626c653a20746f6b656e207472616e73666572207760008201527f68696c6520706175736564000000000000000000000000000000000000000000602082015250565b600061574a602b83613cc6565b9150615755826156ee565b604082019050919050565b600060208201905081810360008301526157798161573d565b9050919050565b7f4e487b7100000000000000000000000000000000000000000000000000000000600052603160045260246000fdfea26469706673582212200c34df82f73ffe62610efca82a31b5c821ab89be6b8a4a06eb5f6f1c8655844164736f6c634300080a003368747470733a2f2f676174657761792e70696e6174612e636c6f75642f697066732f516d63726e753744337131345844426a554e413354734846417879695247647a3766674c536b5a574e586d3756472f",
  "immutableReferences": {},
  "source": "// SPDX-License-Identifier: MIT\r\n\r\npragma solidity ^0.8.0;\r\n\r\nimport './ERC721Tradable.sol';\r\n\r\n\r\ncontract TestNFT is ERC721Tradable{\r\n\r\n    constructor() ERC721Tradable(\"ARCADM\", \"ARC\",0x465cD41394Eb35931f39fdd8507A230FF362f986,\"https://gateway.pinata.cloud/ipfs/Qmcrnu7D3q14XDBjUNA3TsHFAxyiRGdz7fgLSkZWNXm7VG/\") {}\r\n\r\n}",
  "sourcePath": "D:\\Blockchain\\Mint-NFT-Wrapper-ERC721\\contracts\\TestNFT.sol",
  "compiler": {
    "name": "solc",
    "version": "0.8.10+commit.fc410830.Emscripten.clang"
  },
  "schemaVersion": "3.4.4",
  "updatedAt": "2022-03-18T14:51:54.830Z",
  "networkType": "ethereum",
  "devdoc": {
    "kind": "dev",
    "methods": {
      "approve(address,uint256)": {
        "details": "See {IERC721-approve}."
      },
      "balanceOf(address)": {
        "details": "See {IERC721-balanceOf}."
      },
      "burn(uint256)": {
        "details": "Burns `tokenId`. See {ERC721-_burn}. Requirements: - The caller must own `tokenId` or be an approved operator."
      },
      "getApproved(uint256)": {
        "details": "See {IERC721-getApproved}."
      },
      "getRoleAdmin(bytes32)": {
        "details": "Returns the admin role that controls `role`. See {grantRole} and {revokeRole}. To change a role's admin, use {_setRoleAdmin}."
      },
      "getRoleMember(bytes32,uint256)": {
        "details": "Returns one of the accounts that have `role`. `index` must be a value between 0 and {getRoleMemberCount}, non-inclusive. Role bearers are not sorted in any particular way, and their ordering may change at any point. WARNING: When using {getRoleMember} and {getRoleMemberCount}, make sure you perform all queries on the same block. See the following https://forum.openzeppelin.com/t/iterating-over-elements-on-enumerableset-in-openzeppelin-contracts/2296[forum post] for more information."
      },
      "getRoleMemberCount(bytes32)": {
        "details": "Returns the number of accounts that have `role`. Can be used together with {getRoleMember} to enumerate all bearers of a role."
      },
      "grantRole(bytes32,address)": {
        "details": "Grants `role` to `account`. If `account` had not been already granted `role`, emits a {RoleGranted} event. Requirements: - the caller must have ``role``'s admin role."
      },
      "hasRole(bytes32,address)": {
        "details": "Returns `true` if `account` has been granted `role`."
      },
      "mint(address)": {
        "details": "Creates a new token for `to`. Its token ID will be automatically assigned (and available on the emitted {IERC721-Transfer} event), and the token URI autogenerated based on the base URI passed at construction. See {ERC721-_mint}. Requirements: - the caller must have the `MINTER_ROLE`."
      },
      "name()": {
        "details": "See {IERC721Metadata-name}."
      },
      "owner()": {
        "details": "Returns the address of the current owner."
      },
      "ownerOf(uint256)": {
        "details": "See {IERC721-ownerOf}."
      },
      "pause()": {
        "details": "Pauses all token transfers. See {ERC721Pausable} and {Pausable-_pause}. Requirements: - the caller must have the `PAUSER_ROLE`."
      },
      "paused()": {
        "details": "Returns true if the contract is paused, and false otherwise."
      },
      "renounceOwnership()": {
        "details": "Leaves the contract without owner. It will not be possible to call `onlyOwner` functions anymore. Can only be called by the current owner. NOTE: Renouncing ownership will leave the contract without an owner, thereby removing any functionality that is only available to the owner."
      },
      "renounceRole(bytes32,address)": {
        "details": "Revokes `role` from the calling account. Roles are often managed via {grantRole} and {revokeRole}: this function's purpose is to provide a mechanism for accounts to lose their privileges if they are compromised (such as when a trusted device is misplaced). If the calling account had been revoked `role`, emits a {RoleRevoked} event. Requirements: - the caller must be `account`."
      },
      "revokeRole(bytes32,address)": {
        "details": "Revokes `role` from `account`. If `account` had been granted `role`, emits a {RoleRevoked} event. Requirements: - the caller must have ``role``'s admin role."
      },
      "safeTransferFrom(address,address,uint256)": {
        "details": "See {IERC721-safeTransferFrom}."
      },
      "safeTransferFrom(address,address,uint256,bytes)": {
        "details": "See {IERC721-safeTransferFrom}."
      },
      "setApprovalForAll(address,bool)": {
        "details": "See {IERC721-setApprovalForAll}."
      },
      "supportsInterface(bytes4)": {
        "details": "See {IERC165-supportsInterface}."
      },
      "symbol()": {
        "details": "See {IERC721Metadata-symbol}."
      },
      "tokenByIndex(uint256)": {
        "details": "See {IERC721Enumerable-tokenByIndex}."
      },
      "tokenOfOwnerByIndex(address,uint256)": {
        "details": "See {IERC721Enumerable-tokenOfOwnerByIndex}."
      },
      "totalSupply()": {
        "details": "See {IERC721Enumerable-totalSupply}."
      },
      "transferFrom(address,address,uint256)": {
        "details": "See {IERC721-transferFrom}."
      },
      "transferOwnership(address)": {
        "details": "Transfers ownership of the contract to a new account (`newOwner`). Can only be called by the current owner."
      },
      "unpause()": {
        "details": "Unpauses all token transfers. See {ERC721Pausable} and {Pausable-_unpause}. Requirements: - the caller must have the `PAUSER_ROLE`."
      }
    },
    "version": 1
  },
  "userdoc": {
    "kind": "user",
    "methods": {
      "isApprovedForAll(address,address)": {
        "notice": "Override isApprovedForAll to whitelist user's OpenSea proxy accounts to enable gas-less listings."
      }
    },
    "version": 1
  }
}