{
  "contractName": "TestNFT",
  "abi": [
    {
      "inputs": [],
      "stateMutability": "nonpayable",
      "type": "constructor"
    },
    {
      "anonymous": false,
      "inputs": [
        {
          "indexed": true,
          "internalType": "address",
          "name": "owner",
          "type": "address"
        },
        {
          "indexed": true,
          "internalType": "address",
          "name": "approved",
          "type": "address"
        },
        {
          "indexed": true,
          "internalType": "uint256",
          "name": "tokenId",
          "type": "uint256"
        }
      ],
      "name": "Approval",
      "type": "event"
    },
    {
      "anonymous": false,
      "inputs": [
        {
          "indexed": true,
          "internalType": "address",
          "name": "owner",
          "type": "address"
        },
        {
          "indexed": true,
          "internalType": "address",
          "name": "operator",
          "type": "address"
        },
        {
          "indexed": false,
          "internalType": "bool",
          "name": "approved",
          "type": "bool"
        }
      ],
      "name": "ApprovalForAll",
      "type": "event"
    },
    {
      "anonymous": false,
      "inputs": [
        {
          "indexed": true,
          "internalType": "address",
          "name": "previousOwner",
          "type": "address"
        },
        {
          "indexed": true,
          "internalType": "address",
          "name": "newOwner",
          "type": "address"
        }
      ],
      "name": "OwnershipTransferred",
      "type": "event"
    },
    {
      "anonymous": false,
      "inputs": [
        {
          "indexed": false,
          "internalType": "address",
          "name": "account",
          "type": "address"
        }
      ],
      "name": "Paused",
      "type": "event"
    },
    {
      "anonymous": false,
      "inputs": [
        {
          "indexed": true,
          "internalType": "bytes32",
          "name": "role",
          "type": "bytes32"
        },
        {
          "indexed": true,
          "internalType": "bytes32",
          "name": "previousAdminRole",
          "type": "bytes32"
        },
        {
          "indexed": true,
          "internalType": "bytes32",
          "name": "newAdminRole",
          "type": "bytes32"
        }
      ],
      "name": "RoleAdminChanged",
      "type": "event"
    },
    {
      "anonymous": false,
      "inputs": [
        {
          "indexed": true,
          "internalType": "bytes32",
          "name": "role",
          "type": "bytes32"
        },
        {
          "indexed": true,
          "internalType": "address",
          "name": "account",
          "type": "address"
        },
        {
          "indexed": true,
          "internalType": "address",
          "name": "sender",
          "type": "address"
        }
      ],
      "name": "RoleGranted",
      "type": "event"
    },
    {
      "anonymous": false,
      "inputs": [
        {
          "indexed": true,
          "internalType": "bytes32",
          "name": "role",
          "type": "bytes32"
        },
        {
          "indexed": true,
          "internalType": "address",
          "name": "account",
          "type": "address"
        },
        {
          "indexed": true,
          "internalType": "address",
          "name": "sender",
          "type": "address"
        }
      ],
      "name": "RoleRevoked",
      "type": "event"
    },
    {
      "anonymous": false,
      "inputs": [
        {
          "indexed": true,
          "internalType": "address",
          "name": "from",
          "type": "address"
        },
        {
          "indexed": true,
          "internalType": "address",
          "name": "to",
          "type": "address"
        },
        {
          "indexed": true,
          "internalType": "uint256",
          "name": "tokenId",
          "type": "uint256"
        }
      ],
      "name": "Transfer",
      "type": "event"
    },
    {
      "anonymous": false,
      "inputs": [
        {
          "indexed": false,
          "internalType": "address",
          "name": "account",
          "type": "address"
        }
      ],
      "name": "Unpaused",
      "type": "event"
    },
    {
      "inputs": [],
      "name": "DEFAULT_ADMIN_ROLE",
      "outputs": [
        {
          "internalType": "bytes32",
          "name": "",
          "type": "bytes32"
        }
      ],
      "stateMutability": "view",
      "type": "function",
      "constant": true
    },
    {
      "inputs": [],
      "name": "MINTER_ROLE",
      "outputs": [
        {
          "internalType": "bytes32",
          "name": "",
          "type": "bytes32"
        }
      ],
      "stateMutability": "view",
      "type": "function",
      "constant": true
    },
    {
      "inputs": [
        {
          "internalType": "uint256",
          "name": "Mainsale_Price",
          "type": "uint256"
        }
      ],
      "name": "MainsalePrice",
      "outputs": [],
      "stateMutability": "nonpayable",
      "type": "function"
    },
    {
      "inputs": [
        {
          "internalType": "uint256",
          "name": "Mainsale_Supply",
          "type": "uint256"
        }
      ],
      "name": "MainsaleSupply",
      "outputs": [],
      "stateMutability": "nonpayable",
      "type": "function"
    },
    {
      "inputs": [
        {
          "internalType": "address",
          "name": "_to",
          "type": "address"
        }
      ],
      "name": "OwnerMainsale",
      "outputs": [],
      "stateMutability": "nonpayable",
      "type": "function"
    },
    {
      "inputs": [
        {
          "internalType": "address",
          "name": "_to",
          "type": "address"
        }
      ],
      "name": "OwnerPresale",
      "outputs": [],
      "stateMutability": "nonpayable",
      "type": "function"
    },
    {
      "inputs": [],
      "name": "PAUSER_ROLE",
      "outputs": [
        {
          "internalType": "bytes32",
          "name": "",
          "type": "bytes32"
        }
      ],
      "stateMutability": "view",
      "type": "function",
      "constant": true
    },
    {
      "inputs": [
        {
          "internalType": "address",
          "name": "_to",
          "type": "address"
        }
      ],
      "name": "Presale",
      "outputs": [],
      "stateMutability": "payable",
      "type": "function",
      "payable": true
    },
    {
      "inputs": [
        {
          "internalType": "uint256",
          "name": "Presale_Price",
          "type": "uint256"
        }
      ],
      "name": "PresalePrice",
      "outputs": [],
      "stateMutability": "nonpayable",
      "type": "function"
    },
    {
      "inputs": [
        {
          "internalType": "uint256",
          "name": "Presale_Supply",
          "type": "uint256"
        }
      ],
      "name": "PresaleSupply",
      "outputs": [],
      "stateMutability": "nonpayable",
      "type": "function"
    },
    {
      "inputs": [
        {
          "internalType": "address",
          "name": "to",
          "type": "address"
        },
        {
          "internalType": "uint256",
          "name": "tokenId",
          "type": "uint256"
        }
      ],
      "name": "approve",
      "outputs": [],
      "stateMutability": "nonpayable",
      "type": "function"
    },
    {
      "inputs": [
        {
          "internalType": "address",
          "name": "owner",
          "type": "address"
        }
      ],
      "name": "balanceOf",
      "outputs": [
        {
          "internalType": "uint256",
          "name": "",
          "type": "uint256"
        }
      ],
      "stateMutability": "view",
      "type": "function",
      "constant": true
    },
    {
      "inputs": [],
      "name": "baseTokenURI",
      "outputs": [
        {
          "internalType": "string",
          "name": "",
          "type": "string"
        }
      ],
      "stateMutability": "view",
      "type": "function",
      "constant": true
    },
    {
      "inputs": [
        {
          "internalType": "uint256",
          "name": "tokenId",
          "type": "uint256"
        }
      ],
      "name": "burn",
      "outputs": [],
      "stateMutability": "nonpayable",
      "type": "function"
    },
    {
      "inputs": [
        {
          "internalType": "uint256",
          "name": "tokenId",
          "type": "uint256"
        }
      ],
      "name": "getApproved",
      "outputs": [
        {
          "internalType": "address",
          "name": "",
          "type": "address"
        }
      ],
      "stateMutability": "view",
      "type": "function",
      "constant": true
    },
    {
      "inputs": [
        {
          "internalType": "bytes32",
          "name": "role",
          "type": "bytes32"
        }
      ],
      "name": "getRoleAdmin",
      "outputs": [
        {
          "internalType": "bytes32",
          "name": "",
          "type": "bytes32"
        }
      ],
      "stateMutability": "view",
      "type": "function",
      "constant": true
    },
    {
      "inputs": [
        {
          "internalType": "bytes32",
          "name": "role",
          "type": "bytes32"
        },
        {
          "internalType": "uint256",
          "name": "index",
          "type": "uint256"
        }
      ],
      "name": "getRoleMember",
      "outputs": [
        {
          "internalType": "address",
          "name": "",
          "type": "address"
        }
      ],
      "stateMutability": "view",
      "type": "function",
      "constant": true
    },
    {
      "inputs": [
        {
          "internalType": "bytes32",
          "name": "role",
          "type": "bytes32"
        }
      ],
      "name": "getRoleMemberCount",
      "outputs": [
        {
          "internalType": "uint256",
          "name": "",
          "type": "uint256"
        }
      ],
      "stateMutability": "view",
      "type": "function",
      "constant": true
    },
    {
      "inputs": [
        {
          "internalType": "bytes32",
          "name": "role",
          "type": "bytes32"
        },
        {
          "internalType": "address",
          "name": "account",
          "type": "address"
        }
      ],
      "name": "grantRole",
      "outputs": [],
      "stateMutability": "nonpayable",
      "type": "function"
    },
    {
      "inputs": [
        {
          "internalType": "bytes32",
          "name": "role",
          "type": "bytes32"
        },
        {
          "internalType": "address",
          "name": "account",
          "type": "address"
        }
      ],
      "name": "hasRole",
      "outputs": [
        {
          "internalType": "bool",
          "name": "",
          "type": "bool"
        }
      ],
      "stateMutability": "view",
      "type": "function",
      "constant": true
    },
    {
      "inputs": [
        {
          "internalType": "address",
          "name": "owner",
          "type": "address"
        },
        {
          "internalType": "address",
          "name": "operator",
          "type": "address"
        }
      ],
      "name": "isApprovedForAll",
      "outputs": [
        {
          "internalType": "bool",
          "name": "",
          "type": "bool"
        }
      ],
      "stateMutability": "view",
      "type": "function",
      "constant": true
    },
    {
      "inputs": [
        {
          "internalType": "address",
          "name": "to",
          "type": "address"
        }
      ],
      "name": "mint",
      "outputs": [],
      "stateMutability": "nonpayable",
      "type": "function"
    },
    {
      "inputs": [
        {
          "internalType": "address",
          "name": "_to",
          "type": "address"
        }
      ],
      "name": "mintTo",
      "outputs": [],
      "stateMutability": "payable",
      "type": "function",
      "payable": true
    },
    {
      "inputs": [],
      "name": "name",
      "outputs": [
        {
          "internalType": "string",
          "name": "",
          "type": "string"
        }
      ],
      "stateMutability": "view",
      "type": "function",
      "constant": true
    },
    {
      "inputs": [],
      "name": "owner",
      "outputs": [
        {
          "internalType": "address",
          "name": "",
          "type": "address"
        }
      ],
      "stateMutability": "view",
      "type": "function",
      "constant": true
    },
    {
      "inputs": [
        {
          "internalType": "uint256",
          "name": "tokenId",
          "type": "uint256"
        }
      ],
      "name": "ownerOf",
      "outputs": [
        {
          "internalType": "address",
          "name": "",
          "type": "address"
        }
      ],
      "stateMutability": "view",
      "type": "function",
      "constant": true
    },
    {
      "inputs": [],
      "name": "pause",
      "outputs": [],
      "stateMutability": "nonpayable",
      "type": "function"
    },
    {
      "inputs": [],
      "name": "paused",
      "outputs": [
        {
          "internalType": "bool",
          "name": "",
          "type": "bool"
        }
      ],
      "stateMutability": "view",
      "type": "function",
      "constant": true
    },
    {
      "inputs": [],
      "name": "proxyRegistryAddress",
      "outputs": [
        {
          "internalType": "address",
          "name": "",
          "type": "address"
        }
      ],
      "stateMutability": "view",
      "type": "function",
      "constant": true
    },
    {
      "inputs": [],
      "name": "renounceOwnership",
      "outputs": [],
      "stateMutability": "nonpayable",
      "type": "function"
    },
    {
      "inputs": [
        {
          "internalType": "bytes32",
          "name": "role",
          "type": "bytes32"
        },
        {
          "internalType": "address",
          "name": "account",
          "type": "address"
        }
      ],
      "name": "renounceRole",
      "outputs": [],
      "stateMutability": "nonpayable",
      "type": "function"
    },
    {
      "inputs": [
        {
          "internalType": "bytes32",
          "name": "role",
          "type": "bytes32"
        },
        {
          "internalType": "address",
          "name": "account",
          "type": "address"
        }
      ],
      "name": "revokeRole",
      "outputs": [],
      "stateMutability": "nonpayable",
      "type": "function"
    },
    {
      "inputs": [
        {
          "internalType": "address",
          "name": "from",
          "type": "address"
        },
        {
          "internalType": "address",
          "name": "to",
          "type": "address"
        },
        {
          "internalType": "uint256",
          "name": "tokenId",
          "type": "uint256"
        }
      ],
      "name": "safeTransferFrom",
      "outputs": [],
      "stateMutability": "nonpayable",
      "type": "function"
    },
    {
      "inputs": [
        {
          "internalType": "address",
          "name": "from",
          "type": "address"
        },
        {
          "internalType": "address",
          "name": "to",
          "type": "address"
        },
        {
          "internalType": "uint256",
          "name": "tokenId",
          "type": "uint256"
        },
        {
          "internalType": "bytes",
          "name": "_data",
          "type": "bytes"
        }
      ],
      "name": "safeTransferFrom",
      "outputs": [],
      "stateMutability": "nonpayable",
      "type": "function"
    },
    {
      "inputs": [
        {
          "internalType": "address",
          "name": "operator",
          "type": "address"
        },
        {
          "internalType": "bool",
          "name": "approved",
          "type": "bool"
        }
      ],
      "name": "setApprovalForAll",
      "outputs": [],
      "stateMutability": "nonpayable",
      "type": "function"
    },
    {
      "inputs": [
        {
          "internalType": "bytes4",
          "name": "interfaceId",
          "type": "bytes4"
        }
      ],
      "name": "supportsInterface",
      "outputs": [
        {
          "internalType": "bool",
          "name": "",
          "type": "bool"
        }
      ],
      "stateMutability": "view",
      "type": "function",
      "constant": true
    },
    {
      "inputs": [],
      "name": "symbol",
      "outputs": [
        {
          "internalType": "string",
          "name": "",
          "type": "string"
        }
      ],
      "stateMutability": "view",
      "type": "function",
      "constant": true
    },
    {
      "inputs": [
        {
          "internalType": "uint256",
          "name": "index",
          "type": "uint256"
        }
      ],
      "name": "tokenByIndex",
      "outputs": [
        {
          "internalType": "uint256",
          "name": "",
          "type": "uint256"
        }
      ],
      "stateMutability": "view",
      "type": "function",
      "constant": true
    },
    {
      "inputs": [
        {
          "internalType": "address",
          "name": "owner",
          "type": "address"
        },
        {
          "internalType": "uint256",
          "name": "index",
          "type": "uint256"
        }
      ],
      "name": "tokenOfOwnerByIndex",
      "outputs": [
        {
          "internalType": "uint256",
          "name": "",
          "type": "uint256"
        }
      ],
      "stateMutability": "view",
      "type": "function",
      "constant": true
    },
    {
      "inputs": [
        {
          "internalType": "uint256",
          "name": "_tokenId",
          "type": "uint256"
        }
      ],
      "name": "tokenURI",
      "outputs": [
        {
          "internalType": "string",
          "name": "",
          "type": "string"
        }
      ],
      "stateMutability": "view",
      "type": "function",
      "constant": true
    },
    {
      "inputs": [],
      "name": "totalSupply",
      "outputs": [
        {
          "internalType": "uint256",
          "name": "",
          "type": "uint256"
        }
      ],
      "stateMutability": "view",
      "type": "function",
      "constant": true
    },
    {
      "inputs": [
        {
          "internalType": "address",
          "name": "from",
          "type": "address"
        },
        {
          "internalType": "address",
          "name": "to",
          "type": "address"
        },
        {
          "internalType": "uint256",
          "name": "tokenId",
          "type": "uint256"
        }
      ],
      "name": "transferFrom",
      "outputs": [],
      "stateMutability": "nonpayable",
      "type": "function"
    },
    {
      "inputs": [
        {
          "internalType": "address",
          "name": "newOwner",
          "type": "address"
        }
      ],
      "name": "transferOwnership",
      "outputs": [],
      "stateMutability": "nonpayable",
      "type": "function"
    },
    {
      "inputs": [],
      "name": "unpause",
      "outputs": [],
      "stateMutability": "nonpayable",
      "type": "function"
    }
  ],
  "bytecode": "0x608060405267016345785d8a0000601155662386f26fc10000601255606460135560196014553480156200003257600080fd5b506040518060400160405280600881526020017f41522d434144554d0000000000000000000000000000000000000000000000008152506040518060400160405280600381526020017f41524300000000000000000000000000000000000000000000000000000000008152507384dda0d57bf4144f669542e0dd0f6b21389300af604051806080016040528060518152602001620060626051913983838282828160029080519060200190620000eb92919062000672565b5080600390805190602001906200010492919062000672565b5050506000600c60006101000a81548160ff02191690831515021790555080600e90805190602001906200013a92919062000672565b506200015f6000801b620001536200024f60201b60201c565b6200026b60201b60201c565b620001a07f9f2df0fed2c77648de5860a4cc508cd0818c85b8b8a1ab4ceeef8d981c8956a6620001946200024f60201b60201c565b6200026b60201b60201c565b620001e17f65d7a28e3265b37a6474929f336521b332c1681b933f6cb9f3376673440d862a620001d56200024f60201b60201c565b6200026b60201b60201c565b50505062000204620001f86200024f60201b60201c565b6200028160201b60201c565b81601560006101000a81548173ffffffffffffffffffffffffffffffffffffffff021916908373ffffffffffffffffffffffffffffffffffffffff1602179055505050505062000787565b6000620002666200034760201b62001db21760201c565b905090565b6200027d8282620003fa60201b60201c565b5050565b6000600f60009054906101000a900473ffffffffffffffffffffffffffffffffffffffff16905081600f60006101000a81548173ffffffffffffffffffffffffffffffffffffffff021916908373ffffffffffffffffffffffffffffffffffffffff1602179055508173ffffffffffffffffffffffffffffffffffffffff168173ffffffffffffffffffffffffffffffffffffffff167f8be0079c531659141344cd1fd0a4f28419497f9722a3daafe3b4186f6b6457e060405160405180910390a35050565b60003073ffffffffffffffffffffffffffffffffffffffff163373ffffffffffffffffffffffffffffffffffffffff161415620003f357600080368080601f016020809104026020016040519081016040528093929190818152602001838380828437600081840152601f19601f820116905080830192505050505050509050600080369050905073ffffffffffffffffffffffffffffffffffffffff818301511692505050620003f7565b3390505b90565b6200041182826200044260201b62001e631760201c565b6200043d81600160008581526020019081526020016000206200053360201b62001f431790919060201c565b505050565b6200045482826200056b60201b60201c565b6200052f57600160008084815260200190815260200160002060000160008373ffffffffffffffffffffffffffffffffffffffff1673ffffffffffffffffffffffffffffffffffffffff16815260200190815260200160002060006101000a81548160ff021916908315150217905550620004d46200024f60201b60201c565b73ffffffffffffffffffffffffffffffffffffffff168173ffffffffffffffffffffffffffffffffffffffff16837f2f8788117e7eff1d82e926ec794901d17c78024a50270940304540a733656f0d60405160405180910390a45b5050565b600062000563836000018373ffffffffffffffffffffffffffffffffffffffff1660001b620005d560201b60201c565b905092915050565b600080600084815260200190815260200160002060000160008373ffffffffffffffffffffffffffffffffffffffff1673ffffffffffffffffffffffffffffffffffffffff16815260200190815260200160002060009054906101000a900460ff16905092915050565b6000620005e983836200064f60201b60201c565b6200064457826000018290806001815401808255809150506001900390600052602060002001600090919091909150558260000180549050836001016000848152602001908152602001600020819055506001905062000649565b600090505b92915050565b600080836001016000848152602001908152602001600020541415905092915050565b828054620006809062000722565b90600052602060002090601f016020900481019282620006a45760008555620006f0565b82601f10620006bf57805160ff1916838001178555620006f0565b82800160010185558215620006f0579182015b82811115620006ef578251825591602001919060010190620006d2565b5b509050620006ff919062000703565b5090565b5b808211156200071e57600081600090555060010162000704565b5090565b600060028204905060018216806200073b57607f821691505b6020821081141562000752576200075162000758565b5b50919050565b7f4e487b7100000000000000000000000000000000000000000000000000000000600052602260045260246000fd5b6158cb80620007976000396000f3fe6080604052600436106102675760003560e01c806387bbb51e11610144578063ca15c873116100b6578063dee04b7d1161007a578063dee04b7d1461092d578063e63ab1e914610956578063e8e7426e14610981578063e985e9c51461099d578063f2fde38b146109da578063f9b3eb6f14610a0357610267565b8063ca15c87314610846578063cd7c032614610883578063d5391393146108ae578063d547741f146108d9578063d547cfb71461090257610267565b806395d89b411161010857806395d89b4114610738578063a217fddf14610763578063a22cb4651461078e578063ac2346d1146107b7578063b88d4fde146107e0578063c87b56dd1461080957610267565b806387bbb51e146106415780638811f83e1461066a5780638da5cb5b146106935780639010d07c146106be57806391d14854146106fb57610267565b806342842e0e116101dd5780636352211e116101a15780636352211e146105545780636a6278421461059157806370a08231146105ba578063715018a6146105f7578063755edd171461060e5780638456cb591461062a57610267565b806342842e0e1461047157806342966c681461049a578063483b4732146104c35780634f6ccce7146104ec5780635c975abb1461052957610267565b806323b872dd1161022f57806323b872dd14610365578063248a9ca31461038e5780632f2ff15d146103cb5780632f745c59146103f457806336568abe146104315780633f4ba83a1461045a57610267565b806301ffc9a71461026c57806306fdde03146102a9578063081812fc146102d4578063095ea7b31461031157806318160ddd1461033a575b600080fd5b34801561027857600080fd5b50610293600480360381019061028e91906141e5565b610a2c565b6040516102a09190614f8a565b60405180910390f35b3480156102b557600080fd5b506102be610a3e565b6040516102cb9190614fc0565b60405180910390f35b3480156102e057600080fd5b506102fb60048036038101906102f69190614260565b610ad0565b6040516103089190614f23565b60405180910390f35b34801561031d57600080fd5b5061033860048036038101906103339190614108565b610b55565b005b34801561034657600080fd5b5061034f610c6d565b60405161035c91906153c2565b60405180910390f35b34801561037157600080fd5b5061038c60048036038101906103879190614002565b610c7a565b005b34801561039a57600080fd5b506103b560048036038101906103b09190614144565b610cda565b6040516103c29190614fa5565b60405180910390f35b3480156103d757600080fd5b506103f260048036038101906103ed919061416d565b610cf9565b005b34801561040057600080fd5b5061041b60048036038101906104169190614108565b610d22565b60405161042891906153c2565b60405180910390f35b34801561043d57600080fd5b506104586004803603810190610453919061416d565b610dc7565b005b34801561046657600080fd5b5061046f610e4a565b005b34801561047d57600080fd5b5061049860048036038101906104939190614002565b610ec4565b005b3480156104a657600080fd5b506104c160048036038101906104bc9190614260565b610ee4565b005b3480156104cf57600080fd5b506104ea60048036038101906104e59190614260565b610f40565b005b3480156104f857600080fd5b50610513600480360381019061050e9190614260565b610fc6565b60405161052091906153c2565b60405180910390f35b34801561053557600080fd5b5061053e61105d565b60405161054b9190614f8a565b60405180910390f35b34801561056057600080fd5b5061057b60048036038101906105769190614260565b611074565b6040516105889190614f23565b60405180910390f35b34801561059d57600080fd5b506105b860048036038101906105b39190613f9d565b611126565b005b3480156105c657600080fd5b506105e160048036038101906105dc9190613f9d565b6111b6565b6040516105ee91906153c2565b60405180910390f35b34801561060357600080fd5b5061060c61126e565b005b61062860048036038101906106239190613f9d565b6112f6565b005b34801561063657600080fd5b5061063f61144e565b005b34801561064d57600080fd5b5061066860048036038101906106639190613f9d565b6114c8565b005b34801561067657600080fd5b50610691600480360381019061068c9190614260565b61157a565b005b34801561069f57600080fd5b506106a8611600565b6040516106b59190614f23565b60405180910390f35b3480156106ca57600080fd5b506106e560048036038101906106e091906141a9565b61162a565b6040516106f29190614f23565b60405180910390f35b34801561070757600080fd5b50610722600480360381019061071d919061416d565b611659565b60405161072f9190614f8a565b60405180910390f35b34801561074457600080fd5b5061074d6116c3565b60405161075a9190614fc0565b60405180910390f35b34801561076f57600080fd5b50610778611755565b6040516107859190614fa5565b60405180910390f35b34801561079a57600080fd5b506107b560048036038101906107b091906140cc565b61175c565b005b3480156107c357600080fd5b506107de60048036038101906107d99190613f9d565b611772565b005b3480156107ec57600080fd5b5061080760048036038101906108029190614051565b611824565b005b34801561081557600080fd5b50610830600480360381019061082b9190614260565b611886565b60405161083d9190614fc0565b60405180910390f35b34801561085257600080fd5b5061086d60048036038101906108689190614144565b6118c0565b60405161087a91906153c2565b60405180910390f35b34801561088f57600080fd5b506108986118e4565b6040516108a59190614f23565b60405180910390f35b3480156108ba57600080fd5b506108c361190a565b6040516108d09190614fa5565b60405180910390f35b3480156108e557600080fd5b5061090060048036038101906108fb919061416d565b61192e565b005b34801561090e57600080fd5b50610917611957565b6040516109249190614fc0565b60405180910390f35b34801561093957600080fd5b50610954600480360381019061094f9190614260565b611966565b005b34801561096257600080fd5b5061096b6119ec565b6040516109789190614fa5565b60405180910390f35b61099b60048036038101906109969190613f9d565b611a10565b005b3480156109a957600080fd5b506109c460048036038101906109bf9190613fc6565b611b32565b6040516109d19190614f8a565b60405180910390f35b3480156109e657600080fd5b50610a0160048036038101906109fc9190613f9d565b611c34565b005b348015610a0f57600080fd5b50610a2a6004803603810190610a259190614260565b611d2c565b005b6000610a3782611f73565b9050919050565b606060028054610a4d90615692565b80601f0160208091040260200160405190810160405280929190818152602001828054610a7990615692565b8015610ac65780601f10610a9b57610100808354040283529160200191610ac6565b820191906000526020600020905b815481529060010190602001808311610aa957829003601f168201915b5050505050905090565b6000610adb82611fed565b610b1a576040517f08c379a0000000000000000000000000000000000000000000000000000000008152600401610b1190615282565b60405180910390fd5b6006600083815260200190815260200160002060009054906101000a900473ffffffffffffffffffffffffffffffffffffffff169050919050565b6000610b6082611074565b90508073ffffffffffffffffffffffffffffffffffffffff168373ffffffffffffffffffffffffffffffffffffffff161415610bd1576040517f08c379a0000000000000000000000000000000000000000000000000000000008152600401610bc8906152e2565b60405180910390fd5b8073ffffffffffffffffffffffffffffffffffffffff16610bf0612059565b73ffffffffffffffffffffffffffffffffffffffff161480610c1f5750610c1e81610c19612059565b611b32565b5b610c5e576040517f08c379a0000000000000000000000000000000000000000000000000000000008152600401610c55906151e2565b60405180910390fd5b610c688383612068565b505050565b6000600a80549050905090565b610c8b610c85612059565b82612121565b610cca576040517f08c379a0000000000000000000000000000000000000000000000000000000008152600401610cc190615302565b60405180910390fd5b610cd58383836121ff565b505050565b6000806000838152602001908152602001600020600101549050919050565b610d0282610cda565b610d1381610d0e612059565b61245b565b610d1d83836124f8565b505050565b6000610d2d836111b6565b8210610d6e576040517f08c379a0000000000000000000000000000000000000000000000000000000008152600401610d65906150a2565b60405180910390fd5b600860008473ffffffffffffffffffffffffffffffffffffffff1673ffffffffffffffffffffffffffffffffffffffff168152602001908152602001600020600083815260200190815260200160002054905092915050565b610dcf612059565b73ffffffffffffffffffffffffffffffffffffffff168173ffffffffffffffffffffffffffffffffffffffff1614610e3c576040517f08c379a0000000000000000000000000000000000000000000000000000000008152600401610e33906153a2565b60405180910390fd5b610e46828261252c565b5050565b610e7b7f65d7a28e3265b37a6474929f336521b332c1681b933f6cb9f3376673440d862a610e76612059565b611659565b610eba576040517f08c379a0000000000000000000000000000000000000000000000000000000008152600401610eb190615382565b60405180910390fd5b610ec2612560565b565b610edf83838360405180602001604052806000815250611824565b505050565b610ef5610eef612059565b82612121565b610f34576040517f08c379a0000000000000000000000000000000000000000000000000000000008152600401610f2b90615362565b60405180910390fd5b610f3d81612602565b50565b610f48612059565b73ffffffffffffffffffffffffffffffffffffffff16610f66611600565b73ffffffffffffffffffffffffffffffffffffffff1614610fbc576040517f08c379a0000000000000000000000000000000000000000000000000000000008152600401610fb3906152a2565b60405180910390fd5b8060128190555050565b6000610fd0610c6d565b8210611011576040517f08c379a000000000000000000000000000000000000000000000000000000000815260040161100890615322565b60405180910390fd5b600a828154811061104b577f4e487b7100000000000000000000000000000000000000000000000000000000600052603260045260246000fd5b90600052602060002001549050919050565b6000600c60009054906101000a900460ff16905090565b6000806004600084815260200190815260200160002060009054906101000a900473ffffffffffffffffffffffffffffffffffffffff169050600073ffffffffffffffffffffffffffffffffffffffff168173ffffffffffffffffffffffffffffffffffffffff16141561111d576040517f08c379a000000000000000000000000000000000000000000000000000000000815260040161111490615222565b60405180910390fd5b80915050919050565b6111577f9f2df0fed2c77648de5860a4cc508cd0818c85b8b8a1ab4ceeef8d981c8956a6611152612059565b611659565b611196576040517f08c379a000000000000000000000000000000000000000000000000000000000815260040161118d90615342565b60405180910390fd5b6111a9816111a4600d612713565b612721565b6111b3600d6128ef565b50565b60008073ffffffffffffffffffffffffffffffffffffffff168273ffffffffffffffffffffffffffffffffffffffff161415611227576040517f08c379a000000000000000000000000000000000000000000000000000000000815260040161121e90615202565b60405180910390fd5b600560008373ffffffffffffffffffffffffffffffffffffffff1673ffffffffffffffffffffffffffffffffffffffff168152602001908152602001600020549050919050565b611276612059565b73ffffffffffffffffffffffffffffffffffffffff16611294611600565b73ffffffffffffffffffffffffffffffffffffffff16146112ea576040517f08c379a00000000000000000000000000000000000000000000000000000000081526004016112e1906152a2565b60405180910390fd5b6112f46000612905565b565b6009611301336111b6565b1115611342576040517f08c379a000000000000000000000000000000000000000000000000000000000815260040161133990615042565b60405180910390fd5b60135461134d610c6d565b111561138e576040517f08c379a000000000000000000000000000000000000000000000000000000000815260040161138590615002565b60405180910390fd5b6011543410156113d3576040517f08c379a00000000000000000000000000000000000000000000000000000000081526004016113ca90615082565b60405180910390fd5b7384dda0d57bf4144f669542e0dd0f6b21389300af73ffffffffffffffffffffffffffffffffffffffff166108fc349081150290604051600060405180830381858888f1935050505015801561142d573d6000803e3d6000fd5b5061143860106128ef565b61144b816114466010612713565b612721565b50565b61147f7f65d7a28e3265b37a6474929f336521b332c1681b933f6cb9f3376673440d862a61147a612059565b611659565b6114be576040517f08c379a00000000000000000000000000000000000000000000000000000000081526004016114b590615122565b60405180910390fd5b6114c66129cb565b565b6114d0612059565b73ffffffffffffffffffffffffffffffffffffffff166114ee611600565b73ffffffffffffffffffffffffffffffffffffffff1614611544576040517f08c379a000000000000000000000000000000000000000000000000000000000815260040161153b906152a2565b60405180910390fd5b60135461154f610c6d565b111561155a57600080fd5b61156460106128ef565b611577816115726010612713565b612721565b50565b611582612059565b73ffffffffffffffffffffffffffffffffffffffff166115a0611600565b73ffffffffffffffffffffffffffffffffffffffff16146115f6576040517f08c379a00000000000000000000000000000000000000000000000000000000081526004016115ed906152a2565b60405180910390fd5b8060128190555050565b6000600f60009054906101000a900473ffffffffffffffffffffffffffffffffffffffff16905090565b60006116518260016000868152602001908152602001600020612a6e90919063ffffffff16565b905092915050565b600080600084815260200190815260200160002060000160008373ffffffffffffffffffffffffffffffffffffffff1673ffffffffffffffffffffffffffffffffffffffff16815260200190815260200160002060009054906101000a900460ff16905092915050565b6060600380546116d290615692565b80601f01602080910402602001604051908101604052809291908181526020018280546116fe90615692565b801561174b5780601f106117205761010080835404028352916020019161174b565b820191906000526020600020905b81548152906001019060200180831161172e57829003601f168201915b5050505050905090565b6000801b81565b61176e611767612059565b8383612a88565b5050565b61177a612059565b73ffffffffffffffffffffffffffffffffffffffff16611798611600565b73ffffffffffffffffffffffffffffffffffffffff16146117ee576040517f08c379a00000000000000000000000000000000000000000000000000000000081526004016117e5906152a2565b60405180910390fd5b6014546117f9610c6d565b111561180457600080fd5b61180e60106128ef565b6118218161181c6010612713565b612721565b50565b61183561182f612059565b83612121565b611874576040517f08c379a000000000000000000000000000000000000000000000000000000000815260040161186b90615302565b60405180910390fd5b61188084848484612bf5565b50505050565b6060611890611957565b61189983612c51565b6040516020016118aa929190614eba565b6040516020818303038152906040529050919050565b60006118dd60016000848152602001908152602001600020612dfe565b9050919050565b601560009054906101000a900473ffffffffffffffffffffffffffffffffffffffff1681565b7f9f2df0fed2c77648de5860a4cc508cd0818c85b8b8a1ab4ceeef8d981c8956a681565b61193782610cda565b61194881611943612059565b61245b565b611952838361252c565b505050565b6060611961612e13565b905090565b61196e612059565b73ffffffffffffffffffffffffffffffffffffffff1661198c611600565b73ffffffffffffffffffffffffffffffffffffffff16146119e2576040517f08c379a00000000000000000000000000000000000000000000000000000000081526004016119d9906152a2565b60405180910390fd5b8060138190555050565b7f65d7a28e3265b37a6474929f336521b332c1681b933f6cb9f3376673440d862a81565b6001611a1b336111b6565b1115611a5c576040517f08c379a0000000000000000000000000000000000000000000000000000000008152600401611a5390615182565b60405180910390fd5b601454611a67610c6d565b1115611a7257600080fd5b601254341015611ab7576040517f08c379a0000000000000000000000000000000000000000000000000000000008152600401611aae90615242565b60405180910390fd5b7384dda0d57bf4144f669542e0dd0f6b21389300af73ffffffffffffffffffffffffffffffffffffffff166108fc349081150290604051600060405180830381858888f19350505050158015611b11573d6000803e3d6000fd5b50611b1c60106128ef565b611b2f81611b2a6010612713565b612721565b50565b600080601560009054906101000a900473ffffffffffffffffffffffffffffffffffffffff1690508273ffffffffffffffffffffffffffffffffffffffff168173ffffffffffffffffffffffffffffffffffffffff1663c4552791866040518263ffffffff1660e01b8152600401611baa9190614f23565b60206040518083038186803b158015611bc257600080fd5b505afa158015611bd6573d6000803e3d6000fd5b505050506040513d601f19601f82011682018060405250810190611bfa9190614237565b73ffffffffffffffffffffffffffffffffffffffff161415611c20576001915050611c2e565b611c2a8484612ea5565b9150505b92915050565b611c3c612059565b73ffffffffffffffffffffffffffffffffffffffff16611c5a611600565b73ffffffffffffffffffffffffffffffffffffffff1614611cb0576040517f08c379a0000000000000000000000000000000000000000000000000000000008152600401611ca7906152a2565b60405180910390fd5b600073ffffffffffffffffffffffffffffffffffffffff168173ffffffffffffffffffffffffffffffffffffffff161415611d20576040517f08c379a0000000000000000000000000000000000000000000000000000000008152600401611d17906150e2565b60405180910390fd5b611d2981612905565b50565b611d34612059565b73ffffffffffffffffffffffffffffffffffffffff16611d52611600565b73ffffffffffffffffffffffffffffffffffffffff1614611da8576040517f08c379a0000000000000000000000000000000000000000000000000000000008152600401611d9f906152a2565b60405180910390fd5b8060118190555050565b60003073ffffffffffffffffffffffffffffffffffffffff163373ffffffffffffffffffffffffffffffffffffffff161415611e5c57600080368080601f016020809104026020016040519081016040528093929190818152602001838380828437600081840152601f19601f820116905080830192505050505050509050600080369050905073ffffffffffffffffffffffffffffffffffffffff818301511692505050611e60565b3390505b90565b611e6d8282611659565b611f3f57600160008084815260200190815260200160002060000160008373ffffffffffffffffffffffffffffffffffffffff1673ffffffffffffffffffffffffffffffffffffffff16815260200190815260200160002060006101000a81548160ff021916908315150217905550611ee4612059565b73ffffffffffffffffffffffffffffffffffffffff168173ffffffffffffffffffffffffffffffffffffffff16837f2f8788117e7eff1d82e926ec794901d17c78024a50270940304540a733656f0d60405160405180910390a45b5050565b6000611f6b836000018373ffffffffffffffffffffffffffffffffffffffff1660001b612f39565b905092915050565b60007f780e9d63000000000000000000000000000000000000000000000000000000007bffffffffffffffffffffffffffffffffffffffffffffffffffffffff1916827bffffffffffffffffffffffffffffffffffffffffffffffffffffffff19161480611fe65750611fe582612fa9565b5b9050919050565b60008073ffffffffffffffffffffffffffffffffffffffff166004600084815260200190815260200160002060009054906101000a900473ffffffffffffffffffffffffffffffffffffffff1673ffffffffffffffffffffffffffffffffffffffff1614159050919050565b6000612063611db2565b905090565b816006600083815260200190815260200160002060006101000a81548173ffffffffffffffffffffffffffffffffffffffff021916908373ffffffffffffffffffffffffffffffffffffffff160217905550808273ffffffffffffffffffffffffffffffffffffffff166120db83611074565b73ffffffffffffffffffffffffffffffffffffffff167f8c5be1e5ebec7d5bd14f71427d1e84f3dd0314c0f7b2291e5b200ac8c7c3b92560405160405180910390a45050565b600061212c82611fed565b61216b576040517f08c379a0000000000000000000000000000000000000000000000000000000008152600401612162906151a2565b60405180910390fd5b600061217683611074565b90508073ffffffffffffffffffffffffffffffffffffffff168473ffffffffffffffffffffffffffffffffffffffff1614806121e557508373ffffffffffffffffffffffffffffffffffffffff166121cd84610ad0565b73ffffffffffffffffffffffffffffffffffffffff16145b806121f657506121f58185611b32565b5b91505092915050565b8273ffffffffffffffffffffffffffffffffffffffff1661221f82611074565b73ffffffffffffffffffffffffffffffffffffffff1614612275576040517f08c379a000000000000000000000000000000000000000000000000000000000815260040161226c906152c2565b60405180910390fd5b600073ffffffffffffffffffffffffffffffffffffffff168273ffffffffffffffffffffffffffffffffffffffff1614156122e5576040517f08c379a00000000000000000000000000000000000000000000000000000000081526004016122dc90615142565b60405180910390fd5b6122f083838361308b565b6122fb600082612068565b6001600560008573ffffffffffffffffffffffffffffffffffffffff1673ffffffffffffffffffffffffffffffffffffffff168152602001908152602001600020600082825461234b9190615562565b925050819055506001600560008473ffffffffffffffffffffffffffffffffffffffff1673ffffffffffffffffffffffffffffffffffffffff16815260200190815260200160002060008282546123a29190615481565b92505081905550816004600083815260200190815260200160002060006101000a81548173ffffffffffffffffffffffffffffffffffffffff021916908373ffffffffffffffffffffffffffffffffffffffff160217905550808273ffffffffffffffffffffffffffffffffffffffff168473ffffffffffffffffffffffffffffffffffffffff167fddf252ad1be2c89b69c2b068fc378daa952ba7f163c4a11628f55a4df523b3ef60405160405180910390a4505050565b6124658282611659565b6124f45761248a8173ffffffffffffffffffffffffffffffffffffffff16601461309b565b6124988360001c602061309b565b6040516020016124a9929190614ee9565b6040516020818303038152906040526040517f08c379a00000000000000000000000000000000000000000000000000000000081526004016124eb9190614fc0565b60405180910390fd5b5050565b6125028282611e63565b6125278160016000858152602001908152602001600020611f4390919063ffffffff16565b505050565b6125368282613395565b61255b816001600085815260200190815260200160002061347690919063ffffffff16565b505050565b61256861105d565b6125a7576040517f08c379a000000000000000000000000000000000000000000000000000000000815260040161259e90615062565b60405180910390fd5b6000600c60006101000a81548160ff0219169083151502179055507f5db9ee0a495bf2e6ff9c91a7834c1ba4fdd244a5e8aa4e537bd38aeae4b073aa6125eb612059565b6040516125f89190614f23565b60405180910390a1565b600061260d82611074565b905061261b8160008461308b565b612626600083612068565b6001600560008373ffffffffffffffffffffffffffffffffffffffff1673ffffffffffffffffffffffffffffffffffffffff16815260200190815260200160002060008282546126769190615562565b925050819055506004600083815260200190815260200160002060006101000a81549073ffffffffffffffffffffffffffffffffffffffff021916905581600073ffffffffffffffffffffffffffffffffffffffff168273ffffffffffffffffffffffffffffffffffffffff167fddf252ad1be2c89b69c2b068fc378daa952ba7f163c4a11628f55a4df523b3ef60405160405180910390a45050565b600081600001549050919050565b600073ffffffffffffffffffffffffffffffffffffffff168273ffffffffffffffffffffffffffffffffffffffff161415612791576040517f08c379a000000000000000000000000000000000000000000000000000000000815260040161278890615262565b60405180910390fd5b61279a81611fed565b156127da576040517f08c379a00000000000000000000000000000000000000000000000000000000081526004016127d190615102565b60405180910390fd5b6127e66000838361308b565b6001600560008473ffffffffffffffffffffffffffffffffffffffff1673ffffffffffffffffffffffffffffffffffffffff16815260200190815260200160002060008282546128369190615481565b92505081905550816004600083815260200190815260200160002060006101000a81548173ffffffffffffffffffffffffffffffffffffffff021916908373ffffffffffffffffffffffffffffffffffffffff160217905550808273ffffffffffffffffffffffffffffffffffffffff16600073ffffffffffffffffffffffffffffffffffffffff167fddf252ad1be2c89b69c2b068fc378daa952ba7f163c4a11628f55a4df523b3ef60405160405180910390a45050565b6001816000016000828254019250508190555050565b6000600f60009054906101000a900473ffffffffffffffffffffffffffffffffffffffff16905081600f60006101000a81548173ffffffffffffffffffffffffffffffffffffffff021916908373ffffffffffffffffffffffffffffffffffffffff1602179055508173ffffffffffffffffffffffffffffffffffffffff168173ffffffffffffffffffffffffffffffffffffffff167f8be0079c531659141344cd1fd0a4f28419497f9722a3daafe3b4186f6b6457e060405160405180910390a35050565b6129d361105d565b15612a13576040517f08c379a0000000000000000000000000000000000000000000000000000000008152600401612a0a906151c2565b60405180910390fd5b6001600c60006101000a81548160ff0219169083151502179055507f62e78cea01bee320cd4e420270b5ea74000d11b0c9f74754ebdbfc544b05a258612a57612059565b604051612a649190614f23565b60405180910390a1565b6000612a7d83600001836134a6565b60001c905092915050565b8173ffffffffffffffffffffffffffffffffffffffff168373ffffffffffffffffffffffffffffffffffffffff161415612af7576040517f08c379a0000000000000000000000000000000000000000000000000000000008152600401612aee90615162565b60405180910390fd5b80600760008573ffffffffffffffffffffffffffffffffffffffff1673ffffffffffffffffffffffffffffffffffffffff16815260200190815260200160002060008473ffffffffffffffffffffffffffffffffffffffff1673ffffffffffffffffffffffffffffffffffffffff16815260200190815260200160002060006101000a81548160ff0219169083151502179055508173ffffffffffffffffffffffffffffffffffffffff168373ffffffffffffffffffffffffffffffffffffffff167f17307eab39ab6107e8899845ad3d59bd9653f200f220920489ca2b5937696c3183604051612be89190614f8a565b60405180910390a3505050565b612c008484846121ff565b612c0c848484846134f7565b612c4b576040517f08c379a0000000000000000000000000000000000000000000000000000000008152600401612c42906150c2565b60405180910390fd5b50505050565b60606000821415612c99576040518060400160405280600181526020017f30000000000000000000000000000000000000000000000000000000000000008152509050612df9565b600082905060005b60008214612ccb578080612cb4906156c4565b915050600a82612cc491906154d7565b9150612ca1565b60008167ffffffffffffffff811115612d0d577f4e487b7100000000000000000000000000000000000000000000000000000000600052604160045260246000fd5b6040519080825280601f01601f191660200182016040528015612d3f5781602001600182028036833780820191505090505b5090505b60008514612df257600182612d589190615562565b9150600a85612d67919061570d565b6030612d739190615481565b60f81b818381518110612daf577f4e487b7100000000000000000000000000000000000000000000000000000000600052603260045260246000fd5b60200101907effffffffffffffffffffffffffffffffffffffffffffffffffffffffffffff1916908160001a905350600a85612deb91906154d7565b9450612d43565b8093505050505b919050565b6000612e0c8260000161368e565b9050919050565b6060600e8054612e2290615692565b80601f0160208091040260200160405190810160405280929190818152602001828054612e4e90615692565b8015612e9b5780601f10612e7057610100808354040283529160200191612e9b565b820191906000526020600020905b815481529060010190602001808311612e7e57829003601f168201915b5050505050905090565b6000600760008473ffffffffffffffffffffffffffffffffffffffff1673ffffffffffffffffffffffffffffffffffffffff16815260200190815260200160002060008373ffffffffffffffffffffffffffffffffffffffff1673ffffffffffffffffffffffffffffffffffffffff16815260200190815260200160002060009054906101000a900460ff16905092915050565b6000612f45838361369f565b612f9e578260000182908060018154018082558091505060019003906000526020600020016000909190919091505582600001805490508360010160008481526020019081526020016000208190555060019050612fa3565b600090505b92915050565b60007f80ac58cd000000000000000000000000000000000000000000000000000000007bffffffffffffffffffffffffffffffffffffffffffffffffffffffff1916827bffffffffffffffffffffffffffffffffffffffffffffffffffffffff1916148061307457507f5b5e139f000000000000000000000000000000000000000000000000000000007bffffffffffffffffffffffffffffffffffffffffffffffffffffffff1916827bffffffffffffffffffffffffffffffffffffffffffffffffffffffff1916145b806130845750613083826136c2565b5b9050919050565b61309683838361373c565b505050565b6060600060028360026130ae9190615508565b6130b89190615481565b67ffffffffffffffff8111156130f7577f4e487b7100000000000000000000000000000000000000000000000000000000600052604160045260246000fd5b6040519080825280601f01601f1916602001820160405280156131295781602001600182028036833780820191505090505b5090507f300000000000000000000000000000000000000000000000000000000000000081600081518110613187577f4e487b7100000000000000000000000000000000000000000000000000000000600052603260045260246000fd5b60200101907effffffffffffffffffffffffffffffffffffffffffffffffffffffffffffff1916908160001a9053507f780000000000000000000000000000000000000000000000000000000000000081600181518110613211577f4e487b7100000000000000000000000000000000000000000000000000000000600052603260045260246000fd5b60200101907effffffffffffffffffffffffffffffffffffffffffffffffffffffffffffff1916908160001a905350600060018460026132519190615508565b61325b9190615481565b90505b6001811115613347577f3031323334353637383961626364656600000000000000000000000000000000600f8616601081106132c3577f4e487b7100000000000000000000000000000000000000000000000000000000600052603260045260246000fd5b1a60f81b828281518110613300577f4e487b7100000000000000000000000000000000000000000000000000000000600052603260045260246000fd5b60200101907effffffffffffffffffffffffffffffffffffffffffffffffffffffffffffff1916908160001a905350600485901c94508061334090615668565b905061325e565b506000841461338b576040517f08c379a000000000000000000000000000000000000000000000000000000000815260040161338290614fe2565b60405180910390fd5b8091505092915050565b61339f8282611659565b1561347257600080600084815260200190815260200160002060000160008373ffffffffffffffffffffffffffffffffffffffff1673ffffffffffffffffffffffffffffffffffffffff16815260200190815260200160002060006101000a81548160ff021916908315150217905550613417612059565b73ffffffffffffffffffffffffffffffffffffffff168173ffffffffffffffffffffffffffffffffffffffff16837ff6391f5c32d9c69d2a47ea670b442974b53935d1edc7fd64eb21e047a839171b60405160405180910390a45b5050565b600061349e836000018373ffffffffffffffffffffffffffffffffffffffff1660001b613794565b905092915050565b60008260000182815481106134e4577f4e487b7100000000000000000000000000000000000000000000000000000000600052603260045260246000fd5b9060005260206000200154905092915050565b60006135188473ffffffffffffffffffffffffffffffffffffffff1661391a565b15613681578373ffffffffffffffffffffffffffffffffffffffff1663150b7a02613541612059565b8786866040518563ffffffff1660e01b81526004016135639493929190614f3e565b602060405180830381600087803b15801561357d57600080fd5b505af19250505080156135ae57506040513d601f19601f820116820180604052508101906135ab919061420e565b60015b613631573d80600081146135de576040519150601f19603f3d011682016040523d82523d6000602084013e6135e3565b606091505b50600081511415613629576040517f08c379a0000000000000000000000000000000000000000000000000000000008152600401613620906150c2565b60405180910390fd5b805181602001fd5b63150b7a0260e01b7bffffffffffffffffffffffffffffffffffffffffffffffffffffffff1916817bffffffffffffffffffffffffffffffffffffffffffffffffffffffff191614915050613686565b600190505b949350505050565b600081600001805490509050919050565b600080836001016000848152602001908152602001600020541415905092915050565b60007f5a05180f000000000000000000000000000000000000000000000000000000007bffffffffffffffffffffffffffffffffffffffffffffffffffffffff1916827bffffffffffffffffffffffffffffffffffffffffffffffffffffffff1916148061373557506137348261392d565b5b9050919050565b6137478383836139a7565b61374f61105d565b1561378f576040517f08c379a000000000000000000000000000000000000000000000000000000000815260040161378690615022565b60405180910390fd5b505050565b6000808360010160008481526020019081526020016000205490506000811461390e5760006001826137c69190615562565b90506000600186600001805490506137de9190615562565b9050818114613899576000866000018281548110613825577f4e487b7100000000000000000000000000000000000000000000000000000000600052603260045260246000fd5b906000526020600020015490508087600001848154811061386f577f4e487b7100000000000000000000000000000000000000000000000000000000600052603260045260246000fd5b90600052602060002001819055508387600101600083815260200190815260200160002081905550505b856000018054806138d3577f4e487b7100000000000000000000000000000000000000000000000000000000600052603160045260246000fd5b600190038181906000526020600020016000905590558560010160008681526020019081526020016000206000905560019350505050613914565b60009150505b92915050565b600080823b905060008111915050919050565b60007f7965db0b000000000000000000000000000000000000000000000000000000007bffffffffffffffffffffffffffffffffffffffffffffffffffffffff1916827bffffffffffffffffffffffffffffffffffffffffffffffffffffffff191614806139a0575061399f82613abb565b5b9050919050565b6139b2838383613b25565b600073ffffffffffffffffffffffffffffffffffffffff168373ffffffffffffffffffffffffffffffffffffffff1614156139f5576139f081613b2a565b613a34565b8173ffffffffffffffffffffffffffffffffffffffff168373ffffffffffffffffffffffffffffffffffffffff1614613a3357613a328382613b73565b5b5b600073ffffffffffffffffffffffffffffffffffffffff168273ffffffffffffffffffffffffffffffffffffffff161415613a7757613a7281613ce0565b613ab6565b8273ffffffffffffffffffffffffffffffffffffffff168273ffffffffffffffffffffffffffffffffffffffff1614613ab557613ab48282613e23565b5b5b505050565b60007f01ffc9a7000000000000000000000000000000000000000000000000000000007bffffffffffffffffffffffffffffffffffffffffffffffffffffffff1916827bffffffffffffffffffffffffffffffffffffffffffffffffffffffff1916149050919050565b505050565b600a80549050600b600083815260200190815260200160002081905550600a81908060018154018082558091505060019003906000526020600020016000909190919091505550565b60006001613b80846111b6565b613b8a9190615562565b9050600060096000848152602001908152602001600020549050818114613c6f576000600860008673ffffffffffffffffffffffffffffffffffffffff1673ffffffffffffffffffffffffffffffffffffffff168152602001908152602001600020600084815260200190815260200160002054905080600860008773ffffffffffffffffffffffffffffffffffffffff1673ffffffffffffffffffffffffffffffffffffffff168152602001908152602001600020600084815260200190815260200160002081905550816009600083815260200190815260200160002081905550505b6009600084815260200190815260200160002060009055600860008573ffffffffffffffffffffffffffffffffffffffff1673ffffffffffffffffffffffffffffffffffffffff16815260200190815260200160002060008381526020019081526020016000206000905550505050565b60006001600a80549050613cf49190615562565b90506000600b60008481526020019081526020016000205490506000600a8381548110613d4a577f4e487b7100000000000000000000000000000000000000000000000000000000600052603260045260246000fd5b9060005260206000200154905080600a8381548110613d92577f4e487b7100000000000000000000000000000000000000000000000000000000600052603260045260246000fd5b906000526020600020018190555081600b600083815260200190815260200160002081905550600b600085815260200190815260200160002060009055600a805480613e07577f4e487b7100000000000000000000000000000000000000000000000000000000600052603160045260246000fd5b6001900381819060005260206000200160009055905550505050565b6000613e2e836111b6565b905081600860008573ffffffffffffffffffffffffffffffffffffffff1673ffffffffffffffffffffffffffffffffffffffff168152602001908152602001600020600083815260200190815260200160002081905550806009600084815260200190815260200160002081905550505050565b6000613eb5613eb08461540e565b6153dd565b905082815260208101848484011115613ecd57600080fd5b613ed8848285615626565b509392505050565b600081359050613eef8161580b565b92915050565b600081359050613f0481615822565b92915050565b600081359050613f1981615839565b92915050565b600081359050613f2e81615850565b92915050565b600081519050613f4381615850565b92915050565b600082601f830112613f5a57600080fd5b8135613f6a848260208601613ea2565b91505092915050565b600081519050613f8281615867565b92915050565b600081359050613f978161587e565b92915050565b600060208284031215613faf57600080fd5b6000613fbd84828501613ee0565b91505092915050565b60008060408385031215613fd957600080fd5b6000613fe785828601613ee0565b9250506020613ff885828601613ee0565b9150509250929050565b60008060006060848603121561401757600080fd5b600061402586828701613ee0565b935050602061403686828701613ee0565b925050604061404786828701613f88565b9150509250925092565b6000806000806080858703121561406757600080fd5b600061407587828801613ee0565b945050602061408687828801613ee0565b935050604061409787828801613f88565b925050606085013567ffffffffffffffff8111156140b457600080fd5b6140c087828801613f49565b91505092959194509250565b600080604083850312156140df57600080fd5b60006140ed85828601613ee0565b92505060206140fe85828601613ef5565b9150509250929050565b6000806040838503121561411b57600080fd5b600061412985828601613ee0565b925050602061413a85828601613f88565b9150509250929050565b60006020828403121561415657600080fd5b600061416484828501613f0a565b91505092915050565b6000806040838503121561418057600080fd5b600061418e85828601613f0a565b925050602061419f85828601613ee0565b9150509250929050565b600080604083850312156141bc57600080fd5b60006141ca85828601613f0a565b92505060206141db85828601613f88565b9150509250929050565b6000602082840312156141f757600080fd5b600061420584828501613f1f565b91505092915050565b60006020828403121561422057600080fd5b600061422e84828501613f34565b91505092915050565b60006020828403121561424957600080fd5b600061425784828501613f73565b91505092915050565b60006020828403121561427257600080fd5b600061428084828501613f88565b91505092915050565b61429281615596565b82525050565b6142a1816155a8565b82525050565b6142b0816155b4565b82525050565b60006142c18261543e565b6142cb8185615454565b93506142db818560208601615635565b6142e4816157fa565b840191505092915050565b60006142fa82615449565b6143048185615465565b9350614314818560208601615635565b61431d816157fa565b840191505092915050565b600061433382615449565b61433d8185615476565b935061434d818560208601615635565b80840191505092915050565b6000614366602083615465565b91507f537472696e67733a20686578206c656e67746820696e73756666696369656e746000830152602082019050919050565b60006143a6600f83615465565b91507f416c6c20546f6b656e73204d696e7400000000000000000000000000000000006000830152602082019050919050565b60006143e6602b83615465565b91507f4552433732315061757361626c653a20746f6b656e207472616e73666572207760008301527f68696c65207061757365640000000000000000000000000000000000000000006020830152604082019050919050565b600061444c601f83615465565b91507f4f6e6c79206569676874204e4654204d696e74205065722041646472657373006000830152602082019050919050565b600061448c601483615465565b91507f5061757361626c653a206e6f74207061757365640000000000000000000000006000830152602082019050919050565b60006144cc601083615465565b91507f4e6f7420456e6f756768204574686572000000000000000000000000000000006000830152602082019050919050565b600061450c602b83615465565b91507f455243373231456e756d657261626c653a206f776e657220696e646578206f7560008301527f74206f6620626f756e64730000000000000000000000000000000000000000006020830152604082019050919050565b6000614572603283615465565b91507f4552433732313a207472616e7366657220746f206e6f6e20455243373231526560008301527f63656976657220696d706c656d656e74657200000000000000000000000000006020830152604082019050919050565b60006145d8602683615465565b91507f4f776e61626c653a206e6577206f776e657220697320746865207a65726f206160008301527f64647265737300000000000000000000000000000000000000000000000000006020830152604082019050919050565b600061463e601c83615465565b91507f4552433732313a20746f6b656e20616c7265616479206d696e746564000000006000830152602082019050919050565b600061467e603e83615465565b91507f4552433732315072657365744d696e7465725061757365724175746f49643a2060008301527f6d75737420686176652070617573657220726f6c6520746f20706175736500006020830152604082019050919050565b60006146e4602483615465565b91507f4552433732313a207472616e7366657220746f20746865207a65726f2061646460008301527f72657373000000000000000000000000000000000000000000000000000000006020830152604082019050919050565b600061474a601983615465565b91507f4552433732313a20617070726f766520746f2063616c6c6572000000000000006000830152602082019050919050565b600061478a601d83615465565b91507f4f6e6c792054776f204e4654204d696e742050657220416464726573730000006000830152602082019050919050565b60006147ca602c83615465565b91507f4552433732313a206f70657261746f7220717565727920666f72206e6f6e657860008301527f697374656e7420746f6b656e00000000000000000000000000000000000000006020830152604082019050919050565b6000614830601083615465565b91507f5061757361626c653a20706175736564000000000000000000000000000000006000830152602082019050919050565b6000614870603883615465565b91507f4552433732313a20617070726f76652063616c6c6572206973206e6f74206f7760008301527f6e6572206e6f7220617070726f76656420666f7220616c6c00000000000000006020830152604082019050919050565b60006148d6602a83615465565b91507f4552433732313a2062616c616e636520717565727920666f7220746865207a6560008301527f726f2061646472657373000000000000000000000000000000000000000000006020830152604082019050919050565b600061493c602983615465565b91507f4552433732313a206f776e657220717565727920666f72206e6f6e657869737460008301527f656e7420746f6b656e00000000000000000000000000000000000000000000006020830152604082019050919050565b60006149a2601883615465565b91507f4e6f7420456e6f75676820507269636520746f206d696e7400000000000000006000830152602082019050919050565b60006149e2602083615465565b91507f4552433732313a206d696e7420746f20746865207a65726f20616464726573736000830152602082019050919050565b6000614a22602c83615465565b91507f4552433732313a20617070726f76656420717565727920666f72206e6f6e657860008301527f697374656e7420746f6b656e00000000000000000000000000000000000000006020830152604082019050919050565b6000614a88600583615476565b91507f2e6a736f6e0000000000000000000000000000000000000000000000000000006000830152600582019050919050565b6000614ac8602083615465565b91507f4f776e61626c653a2063616c6c6572206973206e6f7420746865206f776e65726000830152602082019050919050565b6000614b08602983615465565b91507f4552433732313a207472616e73666572206f6620746f6b656e2074686174206960008301527f73206e6f74206f776e00000000000000000000000000000000000000000000006020830152604082019050919050565b6000614b6e602183615465565b91507f4552433732313a20617070726f76616c20746f2063757272656e74206f776e6560008301527f72000000000000000000000000000000000000000000000000000000000000006020830152604082019050919050565b6000614bd4603183615465565b91507f4552433732313a207472616e736665722063616c6c6572206973206e6f74206f60008301527f776e6572206e6f7220617070726f7665640000000000000000000000000000006020830152604082019050919050565b6000614c3a602c83615465565b91507f455243373231456e756d657261626c653a20676c6f62616c20696e646578206f60008301527f7574206f6620626f756e647300000000000000000000000000000000000000006020830152604082019050919050565b6000614ca0601783615476565b91507f416363657373436f6e74726f6c3a206163636f756e74200000000000000000006000830152601782019050919050565b6000614ce0603d83615465565b91507f4552433732315072657365744d696e7465725061757365724175746f49643a2060008301527f6d7573742068617665206d696e74657220726f6c6520746f206d696e740000006020830152604082019050919050565b6000614d46603083615465565b91507f4552433732314275726e61626c653a2063616c6c6572206973206e6f74206f7760008301527f6e6572206e6f7220617070726f766564000000000000000000000000000000006020830152604082019050919050565b6000614dac604083615465565b91507f4552433732315072657365744d696e7465725061757365724175746f49643a2060008301527f6d75737420686176652070617573657220726f6c6520746f20756e70617573656020830152604082019050919050565b6000614e12601183615476565b91507f206973206d697373696e6720726f6c65200000000000000000000000000000006000830152601182019050919050565b6000614e52602f83615465565b91507f416363657373436f6e74726f6c3a2063616e206f6e6c792072656e6f756e636560008301527f20726f6c657320666f722073656c6600000000000000000000000000000000006020830152604082019050919050565b614eb48161561c565b82525050565b6000614ec68285614328565b9150614ed28284614328565b9150614edd82614a7b565b91508190509392505050565b6000614ef482614c93565b9150614f008285614328565b9150614f0b82614e05565b9150614f178284614328565b91508190509392505050565b6000602082019050614f386000830184614289565b92915050565b6000608082019050614f536000830187614289565b614f606020830186614289565b614f6d6040830185614eab565b8181036060830152614f7f81846142b6565b905095945050505050565b6000602082019050614f9f6000830184614298565b92915050565b6000602082019050614fba60008301846142a7565b92915050565b60006020820190508181036000830152614fda81846142ef565b905092915050565b60006020820190508181036000830152614ffb81614359565b9050919050565b6000602082019050818103600083015261501b81614399565b9050919050565b6000602082019050818103600083015261503b816143d9565b9050919050565b6000602082019050818103600083015261505b8161443f565b9050919050565b6000602082019050818103600083015261507b8161447f565b9050919050565b6000602082019050818103600083015261509b816144bf565b9050919050565b600060208201905081810360008301526150bb816144ff565b9050919050565b600060208201905081810360008301526150db81614565565b9050919050565b600060208201905081810360008301526150fb816145cb565b9050919050565b6000602082019050818103600083015261511b81614631565b9050919050565b6000602082019050818103600083015261513b81614671565b9050919050565b6000602082019050818103600083015261515b816146d7565b9050919050565b6000602082019050818103600083015261517b8161473d565b9050919050565b6000602082019050818103600083015261519b8161477d565b9050919050565b600060208201905081810360008301526151bb816147bd565b9050919050565b600060208201905081810360008301526151db81614823565b9050919050565b600060208201905081810360008301526151fb81614863565b9050919050565b6000602082019050818103600083015261521b816148c9565b9050919050565b6000602082019050818103600083015261523b8161492f565b9050919050565b6000602082019050818103600083015261525b81614995565b9050919050565b6000602082019050818103600083015261527b816149d5565b9050919050565b6000602082019050818103600083015261529b81614a15565b9050919050565b600060208201905081810360008301526152bb81614abb565b9050919050565b600060208201905081810360008301526152db81614afb565b9050919050565b600060208201905081810360008301526152fb81614b61565b9050919050565b6000602082019050818103600083015261531b81614bc7565b9050919050565b6000602082019050818103600083015261533b81614c2d565b9050919050565b6000602082019050818103600083015261535b81614cd3565b9050919050565b6000602082019050818103600083015261537b81614d39565b9050919050565b6000602082019050818103600083015261539b81614d9f565b9050919050565b600060208201905081810360008301526153bb81614e45565b9050919050565b60006020820190506153d76000830184614eab565b92915050565b6000604051905081810181811067ffffffffffffffff82111715615404576154036157cb565b5b8060405250919050565b600067ffffffffffffffff821115615429576154286157cb565b5b601f19601f8301169050602081019050919050565b600081519050919050565b600081519050919050565b600082825260208201905092915050565b600082825260208201905092915050565b600081905092915050565b600061548c8261561c565b91506154978361561c565b9250827fffffffffffffffffffffffffffffffffffffffffffffffffffffffffffffffff038211156154cc576154cb61573e565b5b828201905092915050565b60006154e28261561c565b91506154ed8361561c565b9250826154fd576154fc61576d565b5b828204905092915050565b60006155138261561c565b915061551e8361561c565b9250817fffffffffffffffffffffffffffffffffffffffffffffffffffffffffffffffff04831182151516156155575761555661573e565b5b828202905092915050565b600061556d8261561c565b91506155788361561c565b92508282101561558b5761558a61573e565b5b828203905092915050565b60006155a1826155fc565b9050919050565b60008115159050919050565b6000819050919050565b60007fffffffff0000000000000000000000000000000000000000000000000000000082169050919050565b60006155f582615596565b9050919050565b600073ffffffffffffffffffffffffffffffffffffffff82169050919050565b6000819050919050565b82818337600083830152505050565b60005b83811015615653578082015181840152602081019050615638565b83811115615662576000848401525b50505050565b60006156738261561c565b915060008214156156875761568661573e565b5b600182039050919050565b600060028204905060018216806156aa57607f821691505b602082108114156156be576156bd61579c565b5b50919050565b60006156cf8261561c565b91507fffffffffffffffffffffffffffffffffffffffffffffffffffffffffffffffff8214156157025761570161573e565b5b600182019050919050565b60006157188261561c565b91506157238361561c565b9250826157335761573261576d565b5b828206905092915050565b7f4e487b7100000000000000000000000000000000000000000000000000000000600052601160045260246000fd5b7f4e487b7100000000000000000000000000000000000000000000000000000000600052601260045260246000fd5b7f4e487b7100000000000000000000000000000000000000000000000000000000600052602260045260246000fd5b7f4e487b7100000000000000000000000000000000000000000000000000000000600052604160045260246000fd5b6000601f19601f8301169050919050565b61581481615596565b811461581f57600080fd5b50565b61582b816155a8565b811461583657600080fd5b50565b615842816155b4565b811461584d57600080fd5b50565b615859816155be565b811461586457600080fd5b50565b615870816155ea565b811461587b57600080fd5b50565b6158878161561c565b811461589257600080fd5b5056fea26469706673582212208a43186661910ec4d673cf30f48abfcd6127f8c780896a3c2a033bd7b3950e7464736f6c6343000800003368747470733a2f2f676174657761792e70696e6174612e636c6f75642f697066732f516d55655056644b5152636d54325a4848454c5671557256757057556e4c705341656444414869663850576e4d362f",
  "immutableReferences": {},
  "source": "pragma solidity ^0.8.0;\r\n\r\nimport './ERC721Tradable.sol';\r\n\r\n\r\ncontract TestNFT is ERC721Tradable{\r\n\r\n    constructor() ERC721Tradable(\"AR-CADUM\", \"ARC\",0x84dDA0d57Bf4144f669542e0DD0F6B21389300Af,\"https://gateway.pinata.cloud/ipfs/QmUePVdKQRcmT2ZHHELVqUrVupWUnLpSAedDAHif8PWnM6/\") {}\r\n\r\n}",
  "sourcePath": "D:\\Blockchain\\Mint-NFT-Wrapper-ERC721\\contracts\\TestNFT.sol",
  "compiler": {
    "name": "solc",
    "version": "0.8.0+commit.c7dfd78e.Emscripten.clang"
  },
  "schemaVersion": "3.4.4",
  "updatedAt": "2022-01-31T13:27:33.524Z",
  "networkType": "ethereum",
  "devdoc": {
    "kind": "dev",
    "methods": {
      "approve(address,uint256)": {
        "details": "See {IERC721-approve}."
      },
      "balanceOf(address)": {
        "details": "See {IERC721-balanceOf}."
      },
      "burn(uint256)": {
        "details": "Burns `tokenId`. See {ERC721-_burn}. Requirements: - The caller must own `tokenId` or be an approved operator."
      },
      "getApproved(uint256)": {
        "details": "See {IERC721-getApproved}."
      },
      "getRoleAdmin(bytes32)": {
        "details": "Returns the admin role that controls `role`. See {grantRole} and {revokeRole}. To change a role's admin, use {_setRoleAdmin}."
      },
      "getRoleMember(bytes32,uint256)": {
        "details": "Returns one of the accounts that have `role`. `index` must be a value between 0 and {getRoleMemberCount}, non-inclusive. Role bearers are not sorted in any particular way, and their ordering may change at any point. WARNING: When using {getRoleMember} and {getRoleMemberCount}, make sure you perform all queries on the same block. See the following https://forum.openzeppelin.com/t/iterating-over-elements-on-enumerableset-in-openzeppelin-contracts/2296[forum post] for more information."
      },
      "getRoleMemberCount(bytes32)": {
        "details": "Returns the number of accounts that have `role`. Can be used together with {getRoleMember} to enumerate all bearers of a role."
      },
      "grantRole(bytes32,address)": {
        "details": "Grants `role` to `account`. If `account` had not been already granted `role`, emits a {RoleGranted} event. Requirements: - the caller must have ``role``'s admin role."
      },
      "hasRole(bytes32,address)": {
        "details": "Returns `true` if `account` has been granted `role`."
      },
      "mint(address)": {
        "details": "Creates a new token for `to`. Its token ID will be automatically assigned (and available on the emitted {IERC721-Transfer} event), and the token URI autogenerated based on the base URI passed at construction. See {ERC721-_mint}. Requirements: - the caller must have the `MINTER_ROLE`."
      },
      "name()": {
        "details": "See {IERC721Metadata-name}."
      },
      "owner()": {
        "details": "Returns the address of the current owner."
      },
      "ownerOf(uint256)": {
        "details": "See {IERC721-ownerOf}."
      },
      "pause()": {
        "details": "Pauses all token transfers. See {ERC721Pausable} and {Pausable-_pause}. Requirements: - the caller must have the `PAUSER_ROLE`."
      },
      "paused()": {
        "details": "Returns true if the contract is paused, and false otherwise."
      },
      "renounceOwnership()": {
        "details": "Leaves the contract without owner. It will not be possible to call `onlyOwner` functions anymore. Can only be called by the current owner. NOTE: Renouncing ownership will leave the contract without an owner, thereby removing any functionality that is only available to the owner."
      },
      "renounceRole(bytes32,address)": {
        "details": "Revokes `role` from the calling account. Roles are often managed via {grantRole} and {revokeRole}: this function's purpose is to provide a mechanism for accounts to lose their privileges if they are compromised (such as when a trusted device is misplaced). If the calling account had been revoked `role`, emits a {RoleRevoked} event. Requirements: - the caller must be `account`."
      },
      "revokeRole(bytes32,address)": {
        "details": "Revokes `role` from `account`. If `account` had been granted `role`, emits a {RoleRevoked} event. Requirements: - the caller must have ``role``'s admin role."
      },
      "safeTransferFrom(address,address,uint256)": {
        "details": "See {IERC721-safeTransferFrom}."
      },
      "safeTransferFrom(address,address,uint256,bytes)": {
        "details": "See {IERC721-safeTransferFrom}."
      },
      "setApprovalForAll(address,bool)": {
        "details": "See {IERC721-setApprovalForAll}."
      },
      "supportsInterface(bytes4)": {
        "details": "See {IERC165-supportsInterface}."
      },
      "symbol()": {
        "details": "See {IERC721Metadata-symbol}."
      },
      "tokenByIndex(uint256)": {
        "details": "See {IERC721Enumerable-tokenByIndex}."
      },
      "tokenOfOwnerByIndex(address,uint256)": {
        "details": "See {IERC721Enumerable-tokenOfOwnerByIndex}."
      },
      "totalSupply()": {
        "details": "See {IERC721Enumerable-totalSupply}."
      },
      "transferFrom(address,address,uint256)": {
        "details": "See {IERC721-transferFrom}."
      },
      "transferOwnership(address)": {
        "details": "Transfers ownership of the contract to a new account (`newOwner`). Can only be called by the current owner."
      },
      "unpause()": {
        "details": "Unpauses all token transfers. See {ERC721Pausable} and {Pausable-_unpause}. Requirements: - the caller must have the `PAUSER_ROLE`."
      }
    },
    "version": 1
  },
  "userdoc": {
    "kind": "user",
    "methods": {
      "isApprovedForAll(address,address)": {
        "notice": "Override isApprovedForAll to whitelist user's OpenSea proxy accounts to enable gas-less listings."
      }
    },
    "version": 1
  }
}